:020000040000FA
:0600000056EF08F01200AB
:0600080080EF00F0120081
:080028000001A951D6EC02F021
:10003000AED1B5D1E5D1FAD1D2D1DDD1B0D1E0D1B7
:10004000F5D1B5D1E8D1BFD110D22BD2C8D1D3D1FF
:100050008A0EF66E100EF76E000EF86E00010900A3
:10006000F550D86F0900F550D96F03E1D86701D07A
:100070003DD00900F550D36F0900F550D46F090049
:10008000F550D56F09000900F550E96E0900F550EB
:10009000EA6E090009000900F550D66F0900F55015
:1000A000D76F09000900F6CFDAF0F7CFDBF0F8CF11
:1000B000DCF0D3C0F6FFD4C0F7FFD5C0F8FF0001D5
:1000C000D65302E1D75307E00900F550EE6ED6078C
:1000D000F8E2D707F9D7DAC0F6FFDBC0F7FFDCC0DC
:0E00E000F8FF0001D807000ED95BBFD7120051
:0200EE001200FE
:10010000006ED8CF01F0E0CF02F0FACF03F0FBCFC2
:1001100004F0E9CF06F0EACF05F09E50200B07E08F
:100120009D50200B04E09E9A27EC04F031D09E50A5
:10013000100B07E09D50100B04E09E981FEC04F09C
:1001400027D09EA604D09E9614EC00F021D09EA04D
:1001500006D09E906BEC02F0AFEC01F019D0F2A249
:1001600004D0F292A5EC02F013D0F0A004D0F090ED
:10017000A7EC02F00DD09EAC08D09E9C9D9C000187
:10018000862B02E10001860703D00000000000007A
:1001900005C0EAFF06C0E9FF04C0FBFF03C0FAFF89
:1001A00002C0E0FF01C0D8FF003A00381100120081
:1001B00067EC02F0F8EC02F0A9EC02F00001010E8D
:1001C000806F0001010E816F0001010E826F00013E
:1001D000836B0001846B0001856B0001866B00015D
:1001E000876B0001886BBBD869EC02F06BEC02F006
:1001F0006DEC02F0000E0001E76E8719E8AE02D048
:10020000873503D0E750D880875512E294EC02F08E
:1002100000018707000E0001E76E8719E8AE02D0E3
:10022000873503D0E750D880875501E2000095D08C
:10023000000E0001E76E8819E8AE02D0883503D0C1
:10024000E750D880885512E29BEC02F00001880745
:10025000000E0001E76E8819E8AE02D0883503D0A1
:10026000E750D880885501E2000077D0000E0001E9
:10027000E76E8619E8AE02D0863503D0E750D88005
:10028000865512E28BEC02F000018607000E000199
:10029000E76E8619E8AE02D0863503D0E750D880E5
:1002A000865501E2000059D0000E0001E76E831967
:1002B000E8AE02D0833503D0E750D880835512E2F0
:1002C00070EC02F000018307000E0001E76E831955
:1002D000E8AE02D0833503D0E750D880835501E2E1
:1002E00000003BD0000E0001E76E8419E8AE02D09A
:1002F000843503D0E750D880845512E279EC02F0BF
:1003000000018407000E0001E76E8419E8AE02D0F8
:10031000843503D0E750D880845501E200001DD019
:10032000000E0001E76E8519E8AE02D0853503D0D6
:10033000E750D880855511E282EC02F00001850774
:10034000000E0001E76E8519E8AE02D0853503D0B6
:10035000E750D880855501E200004AD7120000011D
:10036000800705E1010E806F832B01E18307810780
:1003700005E1050E816F842B01E18407820705E109
:0E038000640E826F852B01E1850700D012000C
:02038E0000016C
:10039000AB81AB9DAA51A96F0F01C584120000016A
:1003A000AB8FAB91AB9DA92B9D86C5801200000140
:1003B000ABAD05D0C5AC03D0000EA96F35D6AB9D53
:1003C000A92BC58212000001ABAD05D0C5AC03D08E
:1003D000000EA96F29D6AB9DA92BC586120000017E
:1003E000ABAD05D0C5AC03D0000EA96F1DD6AB9D3B
:1003F000A92BC58412009D960001AB9FA4EF02F0CB
:100400000001A92BAB8D000EAE6FB00EAF6FAC919B
:10041000AC51C96E12000001A92BAB8D000EB56F57
:10042000B70EB66FAC81AC51C96E12000001ABAD16
:1004300005D0C5AC03D0000EA96FF6D5AB8DE9CFC2
:10044000BCF0EACFBBF0AEC0EAFFAFC0E9FFEE50B0
:10045000EACFAEF0E9CFAFF0BCC0E9FFBBC0EAFF26
:10046000AD2F01D0A92BC96E12000001AB9DA92BA5
:10047000E9CFBEF0EACFBDF0B5C0EAFFB6C0E9FFF4
:10048000C9CFEEFFEACFB5F0E9CFB6F0BEC0E9FFC5
:10049000BDC0EAFFB42F02D0C58A01D0C59AC58875
:1004A00012000001AB9DB451D8A402D0A92BBCD539
:1004B000A907C58612000001010EA96F050EAA6FDB
:0E04C000B3D50001060EA96F0F0EAA6FADD5C1
:0204CE0000EF3D
:1004D0000CF003EF0CF03AEF0CF043EF0CF01200CD
:1004E000110EB7EC02F044EC0CF0120EB7EC02F077
:1004F0001200210EB7EC02F045EC0CF0220EB7EC26
:1005000002F01200310EB7EC02F0ACEC10F0320E3B
:10051000B7EC02F01200810EB7EC02F0ADEC10F077
:10052000820EB7EC02F01200610EB7EC02F0620E20
:10053000B7EC02F01200710EB7EC02F07EEC09F09D
:10054000720EB7EC02F0120012007AEF14F0A5EF71
:0205500014F0A5
:0E05520001EE06F0E9CF02F1EACF01F1FA0E58
:100560000101006FEE6A002FFDD7006B1200F2CF81
:1005700003F1F29EE9CF05F1EACF04F102C1E9FFF0
:1005800001C1EAFFEE6E0101002BFA0E006303D0F9
:1005900001EE06F0006BE9CF02F1EACF01F105C1EF
:0C05A000E9FF04C1EAFF03BFF28E120065
:0405AC000001BF6F1C
:1005B000BF47BF51FD26D8B0FE2A12000001BF6F11
:1005C000BF47BF47BF51FD26D8B0FE2A12000F0E0D
:1005D000786EA50E796E690E7A6EC30E7B6EE10E93
:1005E0007C6ED20E7D6E870E7E6E4B0E7F6EFF0090
:1005F000786A796A7A6A7B6A7C6A7D6A7E6A7F6ACF
:100600001200000EF66EF76EF86E0900EF0EF5623E
:100610000ED00900010EF5620AD00900F00EF56255
:1006200006D008007D0EF56202D0FF0E1200000E0B
:020630001200B6
:0E063200C7C0D1F0C6C0D0F00001CC51D1033A
:10064000F4CFC7F0F3CFC6F0CB51D003F4CFC5F051
:10065000F3CFC4F0CC51D003F350C527F450C623D8
:10066000E86AC723CB51D103F350C527F450C62302
:06067000E86AC723120036
:100800000201006B0E6B0F6B106B116B120002017B
:10081000020E046F066F200E056F076F8F0E086FB4
:100820000091008312000201020E096F0B6F900EFF
:100830000A6F0C6FFF0E0D6F00950087120002010A
:1008400000A302D09D9802D079D8AD6E12000201AB
:10085000ABB205D0ABB409D000B50CD00ED0AB987C
:10086000AB880E3F18D00E0716D0AE500F3F13D0F6
:100870000F0711D0103F01D01007AE505D0AD8B459
:1008800000895D0A33D8020100A905D00099000152
:10089000883F01D0880712009D98E9CF13F2EACF74
:1008A00012F2020100A109D0113F01D0110706C2C6
:1008B000EAFF08C2E9FFEF6E12D006C2EAFF07C2E4
:1008C000E9FF07C208F2EE6E900EE96202D002EE76
:1008D00020F0E950056301D00081E9CF07F20093D1
:1008E00013C2E9FF12C2EAFF9D881200E9CF15F298
:1008F000EACF14F2020100A509D0103F01D0100781
:100900000BC2EAFF0DC2E9FFEF6E12D00BC2EAFF85
:100910000CC2E9FF0CC20DF2EE6E000EE96202D0CD
:1009200002EE90F0E9500A6301D00085E9CF0CF2A5
:10093000009715C2E9FF14C2EAFF1200E9CF17F2CF
:10094000EACF16F2020100B319D004C2EAFF05C2D1
:10095000E9FFEECF02F2900EE96202D002EE20F043
:10096000E9CF05F2E950076302D000839D9800911A
:10097000025117C2E9FF16C2EAFF120017C2E9FFCF
:1009800016C2EAFF000C9D9AE9CF19F2EACF18F2DD
:10099000020100B719D009C2EAFF0AC2E9FFEECF8F
:1009A00001F2000EE96202D002EE90F0E9CF0AF205
:1009B000E9500C6301D000870095015119C2E9FF8D
:1009C00018C2EAFF9D8A120019C2E9FF18C2EAFFA5
:1009D0009D8A000CFE0EE3CFE9FFFF0EE3CFEAFF96
:1009E000EE50000A04E0000A4CEC04F0F9D71200C3
:0609F000FF0EE35051D799
:0A09F6000001C76BC66BC56B270E2E
:100A0000D16F100ED06FD051CB5FD151D8A0D13D56
:100A1000CC5FD8A002D0C72BF6D7D051CB27D1516D
:100A2000D8B0D13DCC27030ED16FE80ED06FD05196
:100A3000CB5FD151D8A0D13DCC5FD8A002D0C62B7E
:100A4000F6D7D051CB27D151D8B0D13DCC27C63B1A
:100A5000000ED16F640ED06FD051CB5FD151D8A0B2
:100A6000D13DCC5FD8A002D0C62BF6D7D051CB2732
:100A7000D151D8B0D13DCC270A0ED06FD051CB5F29
:100A8000D8A002D0C52BFAD7D051CB27C53BCB512C
:100A9000C527000C0001C76BC66B640ECC5FD8A0E5
:100AA00002D0C72BFBD7CC270A0ECC5FD8A002D030
:100AB000C62BFBD7CC27C63BCC51C6271200000162
:100AC000CC51300FC76FCB390F0B300FC66F2E0EC6
:100AD000C56FCB510F0B300FC46FCA390F0B300FDE
:100AE000C36FCA510F0B300FC26F000C0001CC5105
:100AF000300FC76FCB390F0B300FC66FCB510F0BB9
:060B0000300FC56F000C70
:101000001A0FF66E100EF76ED8B0F72A000EF86EB3
:10101000D8B0F72A0900F550120020202020202007
:101020002020202020202020202074696E79525416
:10103000582066726F6D2E2E2E20537963616D6F6E
:10104000726520536F6674776172652C20496E63F8
:101050002E20202020205348696767696E734074F2
:10106000696E795254582E636F6D20202020202005
:0A1070002020202020202020202036
:06107A0003011051D6EC49
:0A10800002F08FD096D0A0D0A7D0C8
:02108A00000064
:04108C00800EF36E71
:1010900000EE00F00F0E01D81200EA6002D0EE6AF6
:0C10A000FCD7F350E9601200EE6AFCD7A8
:0410AC0014EE00F04E
:1010B00024EE00F0F86A089C28EC00F077EC00F0D1
:0810C000D8EC00F0FBD7120090
:10110000000E0301076F1200100E0301066F075156
:1011100000EE89F075DFEE6E06070900F5CFEEFFF1
:10112000062FFBD7072B500E076303D0000E0301D9
:10113000076F120000EE99F008C3EEFF09C3EEFF3F
:101140000AC3EEFF0BC3EEFF0CC3EEFF200EEE6EE4
:10115000560EEE6E200EEE6E2B0EEE6E0DC3EEFFF3
:101160000EC3EEFF0FC3EEFF200EEE6E640EEE6EAA
:0A117000670EEE6E430EEE6E1200E5
:06117A00050E0F01C86E16
:10118000280E0F01C66E800E0F01C76E12000301FC
:10119000102B73D79A0E0001AC6F000E0301106F75
:1011A0006CD7010E0001B06F010EAD6FB46F61EF2F
:1011B00002F00001B751400BD8A403D0030110077F
:1011C00002D00301102B59D7000E0001B06F010EA1
:1011D000AD6FB46F61EF02F0B7C011F30001873F4C
:1011E000F3EF08F0870712007F0E030111150001CD
:1011F000CC6F4AEC05F0C7C0CCF0C6C0CBF076ECA3
:1012000005F003EE0DF0C7C0EEFFC6C0EEFFC5C08F
:04121000EFFF1200DA
:0C121400000EC26E0F0EC16EBA0EC06E4E
:10122000000E0301016F1200C30EC2160301014537
:10123000E844C2269D8CC2821200FF0EE3CF01F368
:10124000120001C300F01200C4CFF4FFC3CFF3FFBC
:101250001200C4500301026FC350036F02C3C7F0F2
:1012600003C3C6F0040E0001CC6FE30ECB6F19EC84
:1012700003F0C6C004F3C5C005F304C3CCF005C336
:10128000CBF0FBEC04F0C7C0CCF0C6C0CBF0C5C0BF
:10129000CAF05FEC05F003EE08F0C6C0EEFFC5C073
:1012A000EEFFC4C0EEFFC3C0EEFFC2C0EEFF1200EF
:1012B000948E948C480EB86E000EB06E560EAF6EC3
:1012C000240EAC6E900EAB6E00EC04F007EC04F054
:1012D00013EC04F09D8A1200100E0301136F00EE50
:1012E00099F0EE504CEC04F00301132FFAD70D0ED9
:1012F0004CEC04F00A0E4CEC04F01200C3EC04F0C9
:101300000301126FE66EB1EC10F0030112515D0A99
:08131000F5E1C4EC10F012003D
:08131800D9CFE6FFE1CFD9FFB8
:10132000030EE126FE0EDB50DF6EFD0EDB50E76E96
:10133000010EE7CFDBFFD9CFE9FFDACFEAFFEF50AD
:10134000010B02E08B8801D08B98D9CFE9FFDACF6F
:10135000EAFFEF50020B02E08B8601D08B96D9504A
:10136000010FE96EDACFEAFFEF50010B02E08B8448
:1013700001D08B94D950010FE96EDACFEAFFEF501C
:10138000020B02E08B8201D08B92D950010FE96EE3
:10139000DACFEAFFEF50040B02E08B8001D08B9094
:1013A000938E938C938A93889288928A9284948A5B
:1013B0008986899200000000D950020FE96EDACFC9
:1013C000EAFF8150800B02E0EF8001D0EF90D9500E
:1013D000020FE96EDACFEAFF8150400B02E0EF82A4
:1013E00001D0EF92D950020FE96EDACFEAFF8150B7
:1013F000200B02E0EF8401D0EF94D950020FE96E88
:10140000DACFEAFF8150100B02E0EF8601D0EF96B1
:10141000D950020FE96EDACFEAFF8050100B02E0DC
:10142000EF8801D0EF98D950020FE96EDACFEAFFCA
:101430008050200B02E0EF8A01D0EF9AD950020FC2
:10144000E96EDACFEAFF8050040B02E0EF8C01D0A6
:10145000EF9CD950020FE96EDACFEAFF8250200BE1
:1014600002E0EF8E01D0EF9E8982020EDB5000D0A9
:10147000096E030EE15C02E2E16AE552E16E095099
:10148000E552E7CFD9FF1200D9CFE6FFE1CFD9FF70
:10149000030EE126FE0EDB50DF6EFD0EDB50E76E25
:1014A000010EE7CFDBFFFC0EDB50E76E020EE7CF4D
:1014B000DBFFD9CFE9FFDACFEAFFEF50010B02E003
:1014C0008B8801D08B98D9CFE9FFDACFEAFFEF50B4
:1014D000020B02E08B8601D08B96D950010FE96E8A
:1014E000DACFEAFFEF50010B02E08B8401D08B943E
:1014F000D950010FE96EDACFEAFFEF50020B02E09C
:101500008B8201D08B92D950010FE96EDACFEAFFBE
:10151000EF50040B02E08B8001D08B90939E939C44
:10152000939A93989298929A9294949AD950020F7F
:10153000E96EDACFEAFFEF50010B02E08A8E01D0AC
:101540008A9ED950020FE96EDACFEAFFEF50020B04
:1015500002E08A8C01D08A9CD950020FE96EDACF62
:10156000EAFFEF50040B02E08A8A01D08A9AD95030
:10157000020FE96EDACFEAFFEF50080B02E08A882B
:1015800001D08A98D950020FE96EDACFEAFFEF5006
:10159000100B02E0898801D08998D950020FE96EBA
:1015A000DACFEAFFEF50200B02E0898A01D0899A56
:1015B000D950020FE96EDACFEAFFEF50400B02E09C
:1015C000898401D08994D950020FE96EDACFEAFFFD
:1015D000EF50800B02E08B8A01D08B9A898289962A
:1015E000000000008986030EE15C02E2E16AE55238
:0A15F000E16EE552E7CFD9FF1200CB
:10180000640ED36E1200806A926A816A0F0E936E24
:10181000826AC00E946E9D6A9E6A1F0ED06EC00EC4
:10182000F26E0AEC09F0AEEC10F058EC09F003018E
:1018300094919483948594979499948B949D949F78
:10184000ACEC13F003012B6B2C6B2D6B2E6B2F6B01
:10185000306B316B326B336B346B356B366BD56AF7
:101860001A6B9E0EE66E290EE66EEAEC04F0E55267
:10187000E5521200300ECD6E2C0ECE6ECF0ECF6E16
:101880009D80CD80120012001200D9CFE6FFE1CF7B
:10189000D9FF030EE126030194B505D0947794A7F0
:1018A00002D0A2EF10F041EC14F0040EE66E070E29
:1018B000E66EE66A44EC0AF0E552E552E552040EA3
:1018C000E66E070EE66E010EE66E44EC0AF0E55297
:1018D000E552E552040EE66E070EE66E020EE66E67
:1018E00044EC0AF0E552E552E552040EE66E070EAE
:1018F000E66E030EE66E44EC0AF0E552E552E55260
:10190000060EE66EE66A8CEC09F0E552E55203013C
:10191000216F050EE66EE66A8CEC09F0E552E552A1
:101920000301206F040EE66EE66A8CEC09F0E552C6
:10193000E55203011F6F060EE66E010EE66E8CEC9B
:1019400009F0E552E5520301246F050EE66E010E23
:10195000E66E8CEC09F0E552E5520301236F040EAC
:10196000E66E010EE66E8CEC09F0E552E5520301DD
:10197000226F060EE66E020EE66E8CEC09F0E55262
:10198000E5520301276F050EE66E020EE66E8CEC43
:1019900009F0E552E5520301266F040EE66E020ED1
:1019A000E66E8CEC09F0E552E5520301256F060E58
:1019B000E66E030EE66E8CEC09F0E552E55203018B
:1019C0002A6F050EE66E030EE66E8CEC09F0E5520A
:1019D000E5520301296F040EE66E030EE66E8CECF1
:1019E00009F0E552E5520301286F94A329D25B0E5A
:1019F000E66EF8EC04F0E552570EE66EF8EC04F0F3
:101A0000E55203012151F00BE842E842E842E84286
:101A1000F76A010FF66E2E0EF7220800F550E66EFB
:101A2000F8EC04F0E552030121510F0BF76A010FA6
:101A3000F66E2E0EF7220800F550E66EF8EC04F074
:101A4000E55203012051F00BE842E842E842E84247
:101A5000F76A010FF66E2E0EF7220800F550E66EBB
:101A6000F8EC04F0E552030120510F0BF76A010F67
:101A7000F66E2E0EF7220800F550E66EF8EC04F034
:101A8000E55203011F51F00BE842E842E842E84208
:101A9000F76A010FF66E2E0EF7220800F550E66E7B
:101AA000F8EC04F0E55203011F510F0BF76A010F28
:101AB000F66E2E0EF7220800F550E66EF8EC04F0F4
:101AC000E5522C0EE66EF8EC04F0E55203012451C9
:101AD000F00BE842E842E842E842F76A010FF66E8E
:101AE0002E0EF7220800F550E66EF8EC04F0E552F1
:101AF000030124510F0BF76A010FF66E2E0EF72229
:101B00000800F550E66EF8EC04F0E55203012351AD
:101B1000F00BE842E842E842E842F76A010FF66E4D
:101B20002E0EF7220800F550E66EF8EC04F0E552B0
:101B3000030123510F0BF76A010FF66E2E0EF722E9
:101B40000800F550E66EF8EC04F0E552030122516E
:101B5000F00BE842E842E842E842F76A010FF66E0D
:101B60002E0EF7220800F550E66EF8EC04F0E55270
:101B7000030122510F0BF76A010FF66E2E0EF722AA
:101B80000800F550E66EF8EC04F0E552030194AB62
:101B9000CAD02C0EE66EF8EC04F0E5520301275192
:101BA000F00BE842E842E842E842F76A010FF66EBD
:101BB0002E0EF7220800F550E66EF8EC04F0E55220
:101BC000030127510F0BF76A010FF66E2E0EF72255
:101BD0000800F550E66EF8EC04F0E55203012651DA
:101BE000F00BE842E842E842E842F76A010FF66E7D
:101BF0002E0EF7220800F550E66EF8EC04F0E552E0
:101C0000030126510F0BF76A010FF66E2E0EF72215
:101C10000800F550E66EF8EC04F0E552030125519A
:101C2000F00BE842E842E842E842F76A010FF66E3C
:101C30002E0EF7220800F550E66EF8EC04F0E5529F
:101C4000030125510F0BF76A010FF66E2E0EF722D6
:101C50000800F550E66EF8EC04F0E5522C0EE66E46
:101C6000F8EC04F0E55203012A51F00BE842E84297
:101C7000E842E842F76A010FF66E2E0EF7220800DE
:101C8000F550E66EF8EC04F0E55203012A510F0B13
:101C9000F76A010FF66E2E0EF7220800F550E66E79
:101CA000F8EC04F0E55203012951F00BE842E84258
:101CB000E842E842F76A010FF66E2E0EF72208009E
:101CC000F550E66EF8EC04F0E552030129510F0BD4
:101CD000F76A010FF66E2E0EF7220800F550E66E39
:101CE000F8EC04F0E55203012851F00BE842E84219
:101CF000E842E842F76A010FF66E2E0EF72208005E
:101D0000F550E66EF8EC04F0E552030128510F0B94
:101D1000F76A010FF66E2E0EF7220800F550E66EF8
:101D2000F8EC04F0E552030194AF8AD02C0EE66E75
:101D3000F8EC04F0E55203011C51F00BE842E842D4
:101D4000E842E842F76A010FF66E2E0EF72208000D
:101D5000F550E66EF8EC04F0E55203011C510F0B50
:101D6000F76A010FF66E2E0EF7220800F550E66EA8
:101D7000F8EC04F0E55203011B51F00BE842E84295
:101D8000E842E842F76A010FF66E2E0EF7220800CD
:101D9000F550E66EF8EC04F0E55203011B510F0B11
:101DA000F76A010FF66E2E0EF7220800F550E66E68
:101DB000F8EC04F0E5522C0EE66EF8EC04F0E55277
:101DC00003011E51F00BE842E842E842E842F76A9C
:101DD000010FF66E2E0EF7220800F550E66EF8ECB5
:101DE00004F0E55203011E510F0BF76A010FF66E66
:101DF0002E0EF7220800F550E66EF8EC04F0E552DE
:101E000003011D51F00BE842E842E842E842F76A5C
:101E1000010FF66E2E0EF7220800F550E66EF8EC74
:101E200004F0E55203011D510F0BF76A010FF66E26
:101E30002E0EF7220800F550E66EF8EC04F0E5529D
:101E4000030194AD1AD0096A1651095C14E2160711
:101E500094A30FD05D0EE66EF8EC04F0E5520A0E86
:101E6000E66EF8EC04F0E5520D0EE66EF8EC04F0C8
:101E7000E55268D102D015C316F303012B511F5D43
:101E8000376F2C512059386F2D512159396F2E51F0
:101E9000225D3A6F2F5123593B6F305124593C6FCB
:101EA0003151255D3D6F325126593E6F33512759CF
:101EB0003F6F3451285D406F35512959416F36517C
:101EC0002A59426F94A326D12C0EE66EF8EC04F04A
:101ED000E55203013851F00BE842E842E842E8429B
:101EE000F76A010FF66E2E0EF7220800F550E66E27
:101EF000F8EC04F0E552030138510F0BF76A010FBB
:101F0000F66E2E0EF7220800F550E66EF8EC04F09F
:101F1000E55203013751F00BE842E842E842E8425B
:101F2000F76A010FF66E2E0EF7220800F550E66EE6
:101F3000F8EC04F0E552030137510F0BF76A010F7B
:101F4000F66E2E0EF7220800F550E66EF8EC04F05F
:101F5000E5522C0EE66EF8EC04F0E55203013B511D
:101F6000F00BE842E842E842E842F76A010FF66EF9
:101F70002E0EF7220800F550E66EF8EC04F0E5525C
:101F800003013B510F0BF76A010FF66E2E0EF7227D
:101F90000800F550E66EF8EC04F0E55203013A5102
:101FA000F00BE842E842E842E842F76A010FF66EB9
:101FB0002E0EF7220800F550E66EF8EC04F0E5521C
:101FC00003013A510F0BF76A010FF66E2E0EF7223E
:101FD0000800F550E66EF8EC04F0E552030194AB0E
:101FE0008AD02C0EE66EF8EC04F0E55203013E5167
:101FF000F00BE842E842E842E842F76A010FF66E69
:102000002E0EF7220800F550E66EF8EC04F0E552CB
:1020100003013E510F0BF76A010FF66E2E0EF722E9
:102020000800F550E66EF8EC04F0E55203013D516E
:10203000F00BE842E842E842E842F76A010FF66E28
:102040002E0EF7220800F550E66EF8EC04F0E5528B
:1020500003013D510F0BF76A010FF66E2E0EF722AA
:102060000800F550E66EF8EC04F0E5522C0EE66E32
:10207000F8EC04F0E55203014151F00BE842E8426C
:10208000E842E842F76A010FF66E2E0EF7220800CA
:10209000F550E66EF8EC04F0E552030141510F0BE8
:1020A000F76A010FF66E2E0EF7220800F550E66E65
:1020B000F8EC04F0E55203014051F00BE842E8422D
:1020C000E842E842F76A010FF66E2E0EF72208008A
:1020D000F550E66EF8EC04F0E552030140510F0BA9
:1020E000F76A010FF66E2E0EF7220800F550E66E25
:1020F000F8EC04F0E5525D0EE66EF8EC04F0E55203
:102100000A0EE66EF8EC04F0E5520D0EE66EF8EC01
:1021100004F0E5521FC32BF320C32CF321C32DF38E
:1021200022C32EF323C32FF324C330F325C331F38B
:1021300026C332F327C333F328C334F329C335F35B
:102140002AC336F3030EE15C02E2E16AE552E16E76
:10215000E552E7CFD9FF1200120012000301936B82
:102160001200D9CFE6FFE1CFD9FF03019351932BA2
:10217000EA6A430FE96E030EEA22FE0EDBCFEFFFA1
:10218000E552E7CFD9FF1200D9CFE6FFE1CFD9FF63
:10219000040EE126020EDB6A030EDB6A030194A142
:1021A0002ED0DF6A03019351DF5C1FE2DF50EA6A41
:1021B000430FE96E030EEA22EF500A0814E0DF50E5
:1021C000EA6A430FE96E030EEA22EF500D080BE0B6
:1021D000DF50EA6A430FE96E030EEA22EF50E66E23
:1021E000F8EC04F0E552DF2ADDD70A0EE66EF8ECD3
:1021F00004F0E5520D0EE66EF8EC04F0E5525B0ECD
:102200000301435D01E07FD2030144515A0A01E119
:1022100055D20D0A01E128D2020A01E1FDD1060AD8
:1022200001E1D0D1010A01E1B4D11F0A01E1DAD004
:10223000010A01E1ABD0040A01E19ED00E0A72E06E
:10224000030A57E0010A12E0060A0DE0140A01E051
:1022500050D2D950020FE96EDACFEAFF9E0EEE6E31
:10226000290EED6E50D2E7EC02F04DD2010E45C3BF
:10227000DBFF410E096E010EDB50D880095419E3D3
:102280005A0E0A6E010EDB500A5C13E3010EDB509E
:102290001F0B0301156F0301166F0301948DD950B5
:1022A000020FE96EDACFEAFFC50EEE6E290EED6E73
:1022B0001FD0400E096E010EDB50095C10E10301D6
:1022C000156B15C316F30301949DD950020FE96EE7
:1022D000DACFEAFFE00EEE6E290EED6E09D0D9508E
:1022E000020FE96EDACFEAFFFD0EEE6E290EED6EFB
:1022F0000AD203019471030194A10AD0D950020FAC
:10230000E96EDACFEAFF2B0EEE6E2A0EED6E09D0E3
:10231000D950020FE96EDACFEAFF460EEE6E2A0EB2
:10232000ED6EF1D103014551320A0FE0030A01E0DD
:1023300018D003019495D950020FE96EDACFEAFF65
:10234000630EEE6E2A0EED6E16D003019485D95001
:10235000020FE96EDACFEAFF7B0EEE6E2A0EED6E0B
:102360000AD0D950020FE96EDACFEAFF930EEE6E73
:102370002A0EED6E00D0C7D1D950020FE96EDACF28
:10238000EAFFB20EEE6E2A0EED6EBDD1030145518D
:10239000310A10E0010A01E01AD003019499D950E2
:1023A000020FE96EDACFEAFF110EEE6E2B0EED6E24
:1023B00025DA17D003019489D950020FE96EDACFDC
:1023C000EAFF2B0EEE6E2B0EED6E18DA0AD0D95006
:1023D000020FE96EDACFEAFF430EEE6E2B0EED6EC2
:1023E00000D091D103014551B20A01E1C5D0920A52
:1023F00001E1B5D03F0A01E1A5D0280A01E192D060
:10240000300A01E18FD0310A01E17CD0300A01E1CC
:1024100079D0330A67E0300A65E0310A53E0300AC8
:1024200051E0370A3FE0300A3DE0310A2BE0300A44
:1024300029E0330A17E0300A15E0310A03E0300AD8
:1024400001E09CD003011491149314951497D95072
:10245000020FE96EDACFEAFF6E0EEE6E2B0EED6E16
:10246000CDD996D003011481149314951497D950A3
:10247000020FE96EDACFEAFF880EEE6E2B0EED6EDC
:10248000BDD986D003011491148314951497D950A3
:10249000020FE96EDACFEAFFA20EEE6E2B0EED6EA2
:1024A000ADD976D003011481148314951497D950B3
:1024B000020FE96EDACFEAFFBC0EEE6E2B0EED6E68
:1024C0009DD966D003011491149314851497D950A3
:1024D000020FE96EDACFEAFFD60EEE6E2B0EED6E2E
:1024E0008DD956D003011481149314851497D950B3
:1024F000020FE96EDACFEAFFF00EEE6E2B0EED6EF4
:102500007DD946D003011491148314851497D950B2
:10251000020FE96EDACFEAFF0A0EEE6E2C0EED6EB8
:102520006DD936D003011481148314851497D950C2
:10253000020FE96EDACFEAFF240EEE6E2C0EED6E7E
:102540005DD926D003019499D950020FE96EDACFF4
:10255000EAFF2B0EEE6E2B0EED6E50D919D0030153
:102560009489D950020FE96EDACFEAFF110EEE6EB0
:102570002B0EED6E43D90CD0FF000AD0D950020FBC
:10258000E96EDACFEAFF3E0EEE6E2C0EED6E00D055
:10259000BAD003019473030194A30AD0D950020F57
:1025A000E96EDACFEAFF6C0EEE6E2C0EED6E09D0FE
:1025B000D950020FE96EDACFEAFF840EEE6E2C0ED0
:1025C000ED6EA1D0010E45C3DBFF310E096E010E89
:1025D000DB50D880095416E3380E0A6E010EDB502A
:1025E0000A5C10E3010EDB500F0BFF0F03011A6FA3
:1025F000D950020FE96EDACFEAFF9E0EEE6E2C0E76
:10260000ED6E09D0D950020FE96EDACFEAFFC60E9F
:10261000EE6E2C0EED6E77D003014551310A0EE0BF
:10262000010A01E016D027D9D950020FE96EDACF9E
:10263000EAFF4B0EEE6E2D0EED6E15D00CD9D95073
:10264000020FE96EDACFEAFF6F0EEE6E2D0EED6E21
:102650000AD0D950020FE96EDACFEAFF920EEE6E81
:102660002D0EED6E00D04FD003014551340A0FE01E
:10267000060A01E018D00301949BD950020FE96EBD
:10268000DACFEAFFF40EEE6E2C0EED6E16D00301DB
:10269000948BD950020FE96EDACFEAFF090EEE6E85
:1026A0002D0EED6E0AD0D950020FE96EDACFEAFF97
:1026B0001E0EEE6E2D0EED6E00D025D04DD803010E
:1026C0002B6B2C6B2D6B03012E6B2F6B306B03016F
:1026D000316B326B336B0301346B356B366BD95016
:1026E000020FE96EDACFEAFFC20EEE6E2D0EED6E2E
:1026F0000AD0D950020FE96EDACFEAFFEB0EEE6E88
:102700002D0EED6E00D02ADDD950020FE96EDACF22
:10271000EAFFEE50ED1016E0020EDBCFF6FFDB2AEB
:10272000030EDBCFF7FF01E3DB2A0800010EF5CF34
:10273000DBFFF55007E0010EDBCFE6FFF8EC04F01D
:10274000E552EAD7040EE15C02E2E16AE552E16E8D
:10275000E552E7CFD9FF1200100EE66E070EE66EC7
:10276000E66A44EC0AF0E552E552E552100EE66ED8
:10277000070EE66E010EE66E44EC0AF0E552E552F5
:10278000E552100EE66E070EE66E020EE66E44ECA3
:102790000AF0E552E552E552100EE66E070EE66EBF
:1027A000030EE66E44EC0AF0E552E552E552010EE6
:1027B000E66EE66EE66A44EC0AF0E552E552E55252
:1027C000010EE66EE66EE66E44EC0AF0E552E55266
:1027D000E552010EE66EE66E020EE66E44EC0AF07D
:1027E000E552E552E552010EE66EE66E030EE66E28
:1027F00044EC0AF0E552E552E5521200939E939C98
:10280000939A93989298929A030103011451010BA1
:1028100002E08A8E01D08A9E030103011451020B4B
:1028200002E08A8C01D08A9C030103011451040B3D
:1028300002E08A8A01D08A9A8A9889980301030162
:102840009451100B02E0898A01D0899A8990000086
:102850000000898012000301176B1B6B1C6B1D6B42
:102860001E6B186B196B948FF18CF18AF292F090B9
:10287000F288F0861200F298F096D58E0301949FAC
:10288000120003011751020A15E0010A13E0030ABE
:1028900003E0010A01E01BD0280E096E1851095C03
:1028A00008E2280E0A6E1951D8800A5402E2020E7C
:1028B000176F0DD0280E096E1951095C07E2280E1A
:1028C0000A6E1851D8800A5401E2176B00D0280E06
:1028D000096E1851095C03E21B691C6901D0182BB1
:1028E000280E096E1951095C03E21D691E6901D0A9
:1028F000192B120003011751010A10E0010A01E02F
:1029000022D01A51070BF36EF80ED514F310D56EC2
:10291000D76AD66AD58E010E176F15D0010E096ED3
:10292000F250040B01E0010E095C04E1F2941B6912
:102930001C6904D0D6CF1BF3D7CF1CF3D76AD66A55
:10294000020E176F00D0186B120003011751030A13
:1029500010E0010A01E021D01A51070BF36EF80EC6
:10296000D514F310D56ED76AD66AD58E030E176FBD
:1029700014D0010E096EF250040B01E0010E095C47
:1029800004E1F2941D691E6904D0D6CF1DF3D7CFA0
:0E2990001EF3D76AD66A176B00D0196B1200BF
:02299E005B5686
:1029A0003A204B412D3130374920313846323632CA
:1029B000302076332E302E302032303136303231E6
:1029C000395D0A0D005B443A2044656C74612074E3
:1029D000696D696E67206163746976655D0A0D00D3
:1029E0005B443A2044656C74612074696D696E675C
:1029F00020696E6163746976655D0A0D005B443F12
:102A00003A2055736520666F726D6174205B446E69
:102A10005D207768657265206E203D2040207468D7
:102A2000726F756768205A5D0A0D005B453A204D4C
:102A3000657373616765206563686F20616374699E
:102A400076655D0A0D005B453A204D6573736167DD
:102A500065206563686F20696E6163746976655D82
:102A60000A0D005B46313A204672657175656E63EA
:102A70007920313020487A5D0A0D005B46323A20D9
:102A80004672657175656E637920323020487A5DD3
:102A90000A0D005B463F3A204631203D2031302070
:102AA000487A2C204632203D20323020487A5D0A78
:102AB0000D005B483A20442D656C746120452D6300
:102AC000686F20462D72657175656E637920482D9B
:102AD000656C70204C2D4544204D2D757820522D6D
:102AE00065706F727420562D657273696F6E205712
:102AF0002D6865656C6D6F6465205A2D5265736530
:102B00007420422D6F6F746C6F616465725D0A0D85
:102B1000005B4C303A2054657374204C4544206966
:102B20006E6163746976655D0A0D005B4C313A2015
:102B300054657374204C4544206163746976655D07
:102B40000A0D005B4C3F3A204C30203D204C454460
:102B500020696E6163746976652C204C31203D20BC
:102B60004C4544206163746976655D0A0D005B4DD8
:102B7000303A20566964656F204D757820696E7013
:102B8000757420305D0A0D005B4D313A2056696442
:102B9000656F204D757820696E70757420315D0AFF
:102BA0000D005B4D323A20566964656F204D757893
:102BB00020696E70757420325D0A0D005B4D333AEA
:102BC00020566964656F204D757820696E70757444
:102BD00020335D0A0D005B4D343A20566964656F01
:102BE000204D757820696E70757420345D0A0D0073
:102BF0005B4D353A20566964656F204D75782069C4
:102C00006E70757420355D0A0D005B4D363A2056A6
:102C10006964656F204D757820696E707574203613
:102C20005D0A0D005B4D373A20566964656F204D93
:102C3000757820696E70757420375D0A0D005B4DE4
:102C40003F3A2055736520666F726D6174205B4D4D
:102C50006E5D207768657265206E203D203020749F
:102C600068726F75676820375D0A0D005B523A2005
:102C70005265706F7274696E6720616374697665FE
:102C80005D0A0D005B523A205265706F7274696E76
:102C90006720696E6163746976655D0A0D005B5338
:102CA0003A2050756C736520776964746820746984
:102CB0006D696E67207072657363616C65722073F5
:102CC00065745D0A0D005B533F3A205573652066BD
:102CD0006F726D6174205B536E5D207768657265FD
:102CE000206E203D2031207468726F75676820382F
:102CF0005D0A0D005B57323A203220576865656CDB
:102D0000204D6F64655D0A0D005B57343A20342016
:102D1000576865656C204D6F64655D0A0D005B57F3
:102D20003F3A205732203D203220576865656C209D
:102D30004D6F64652C205734203D20342057686542
:102D4000656C204D6F64655D0A0D005B55303A205F
:102D500050756C73652077696474682074696D6957
:102D60006E672064697361626C65645D0A0D005B67
:102D700055313A2050756C7365207769647468200A
:102D800074696D696E6720656E61626C65645D0A69
:102D90000D005B553F3A205530203D20446973615A
:102DA000626C652074696D696E672C205531203D19
:102DB00020456E61626C652074696D696E675D0A9D
:102DC0000D005B5A3A205351454E2072657365746D
:102DD0005D0A0D005B3F3A204E6F7420696D706C88
:102DE000656D656E7465645D0A0D005B3F3A204E4B
:102DF0006F74207265636F676E697A65645D0A0D32
:102E00000030313233343536373839414243444566
:022E100046007A
:020000040030CA
:0100010006F8
:010002001FDE
:010003000EEE
:010005008377
:010006008178
:010008000FE8
:01000900C036
:01000A000FE6
:01000B00E014
:01000C000FE4
:01000D0040B2
:00000001FF
