:020000040000FA
:060000005CEF08F01200A5
:0600080080EF00F0120081
:080028000001A951D4EC02F023
:10003000AED1B5D1E5D1FAD1D2D1DDD1B0D1E0D1B7
:10004000F5D1B5D1E8D1BFD110D22BD2C8D1D3D1FF
:100050008A0EF66E100EF76E000EF86E00010900A3
:10006000F550D86F0900F550D96F03E1D86701D07A
:100070003DD00900F550D36F0900F550D46F090049
:10008000F550D56F09000900F550E96E0900F550EB
:10009000EA6E090009000900F550D66F0900F55015
:1000A000D76F09000900F6CFDAF0F7CFDBF0F8CF11
:1000B000DCF0D3C0F6FFD4C0F7FFD5C0F8FF0001D5
:1000C000D65302E1D75307E00900F550EE6ED6078C
:1000D000F8E2D707F9D7DAC0F6FFDBC0F7FFDCC0DC
:0E00E000F8FF0001D807000ED95BBFD7120051
:0200EE001200FE
:10010000006ED8CF01F0E0CF02F0FACF03F0FBCFC2
:1001100004F0E9CF06F0EACF05F09E50200B07E08F
:100120009D50200B04E09E9A27EC04F031D09E50A5
:10013000100B07E09D50100B04E09E981FEC04F09C
:1001400027D09EA604D09E9614EC00F021D09EA04D
:1001500006D09E906BEC02F0AFEC01F019D0F2A249
:1001600004D0F292A5EC02F013D0F0A004D0F090ED
:10017000A6EC02F00DD09EAC08D09E9C9D9C000188
:10018000862B02E10001860703D00000000000007A
:1001900005C0EAFF06C0E9FF04C0FBFF03C0FAFF89
:1001A00002C0E0FF01C0D8FF003A00381100120081
:1001B00067EC02F0F6EC02F0A7EC02F00001010E91
:1001C000806F0001010E816F0001010E826F00013E
:1001D000836B0001846B0001856B0001866B00015D
:1001E000876B0001886BBBD869EC02F06BEC02F006
:1001F0006DEC02F0000E0001E76E8719E8AE02D048
:10020000873503D0E750D880875512E294EC02F08E
:1002100000018707000E0001E76E8719E8AE02D0E3
:10022000873503D0E750D880875501E2000095D08C
:10023000000E0001E76E8819E8AE02D0883503D0C1
:10024000E750D880885512E29BEC02F00001880745
:10025000000E0001E76E8819E8AE02D0883503D0A1
:10026000E750D880885501E2000077D0000E0001E9
:10027000E76E8619E8AE02D0863503D0E750D88005
:10028000865512E28BEC02F000018607000E000199
:10029000E76E8619E8AE02D0863503D0E750D880E5
:1002A000865501E2000059D0000E0001E76E831967
:1002B000E8AE02D0833503D0E750D880835512E2F0
:1002C00070EC02F000018307000E0001E76E831955
:1002D000E8AE02D0833503D0E750D880835501E2E1
:1002E00000003BD0000E0001E76E8419E8AE02D09A
:1002F000843503D0E750D880845512E279EC02F0BF
:1003000000018407000E0001E76E8419E8AE02D0F8
:10031000843503D0E750D880845501E200001DD019
:10032000000E0001E76E8519E8AE02D0853503D0D6
:10033000E750D880855511E282EC02F00001850774
:10034000000E0001E76E8519E8AE02D0853503D0B6
:10035000E750D880855501E200004AD7120000011D
:10036000800705E1010E806F832B01E18307810780
:1003700005E10A0E816F842B01E18407820705E104
:0E038000640E826F852B01E1850700D012000C
:02038E0000016C
:10039000AB81AB9DAA51A96F0F01C584120000016A
:1003A000AB8FAB91AB9DA92B9D86C5801200000140
:1003B000ABAD05D0C5AC03D0000EA96F35D6AB9D53
:1003C000A92BC58212000001ABAD05D0C5AC03D08E
:1003D000000EA96F29D6AB9DA92BC586120000017E
:1003E000ABAD05D0C5AC03D0000EA96F1DD6AB9D3B
:1003F000A92BC58412009D960001AB9FA4EF02F0CB
:100400000001A92BAB8D000EAE6FB00EAF6FAC919B
:10041000AC51C96E12000001A92BAB8D000EB56F57
:10042000B70EB66FAC81AC51C96E12000001ABAD16
:1004300005D0C5AC03D0000EA96FF6D5AB8DE9CFC2
:10044000BCF0EACFBBF0AEC0EAFFAFC0E9FFEE50B0
:10045000EACFAEF0E9CFAFF0BCC0E9FFBBC0EAFF26
:10046000AD2F01D0A92BC96E12000001AB9DA92BA5
:10047000E9CFBEF0EACFBDF0B5C0EAFFB6C0E9FFF4
:10048000C9CFEEFFEACFB5F0E9CFB6F0BEC0E9FFC5
:10049000BDC0EAFFB42F02D0C58A01D0C59AC58875
:1004A00012000001AB9DB451D8A402D0A92BBCD539
:1004B000A907C58612000001010EA96F050EAA6FDB
:0E04C000B3D50001060EA96F0F0EAA6FADD5C1
:0204CE0000EF3D
:1004D0000CF003EF0CF02EEF0CF037EF0CF01200E5
:1004E000110EB5EC02F066EC0CF0120EB5EC02F059
:1004F0001200210EB5EC02F077EC0CF0220EB5ECF8
:1005000002F01200310EB5EC02F078EC0CF0320E75
:10051000B5EC02F01200810EB5EC02F079EC0CF0B3
:10052000820EB5EC02F01200610EB5EC02F0620E24
:10053000B5EC02F01200710EB5EC02F07EEC09F0A1
:0E054000720EB5EC02F0120012001200120052
:02054E0001EEBC
:1005500006F0E9CF02F1EACF01F1FA0E0101006FD6
:10056000EE6A002FFDD7006B1200F2CF03F1F29E6E
:10057000E9CF05F1EACF04F102C1E9FF01C1EAFFC9
:10058000EE6E0101002BFA0E006303D001EE06F0BF
:10059000006BE9CF02F1EACF01F105C1E9FF04C127
:0805A000EAFF03BFF28E120016
:0805A8000001BF6FBF47BF5106
:1005B000FD26D8B0FE2A12000001BF6FBF47BF471B
:1005C000BF51FD26D8B0FE2A12000F0E786EA50E80
:1005D000796E690E7A6EC30E7B6EE10E7C6ED20E62
:1005E0007D6E870E7E6E4B0E7F6EFF00786A796A95
:1005F0007A6A7B6A7C6A7D6A7E6A7F6A1200000E74
:10060000F66EF76EF86E0900EF0EF5620ED0090077
:10061000010EF5620AD00900F00EF56206D008005E
:0E0620007D0EF56202D0FF0E1200000E1200D9
:02062E00C7C043
:10063000D1F0C6C0D0F00001CC51D103F4CFC7F047
:10064000F3CFC6F0CB51D003F4CFC5F0F3CFC4F055
:10065000CC51D003F350C527F450C623E86AC72312
:10066000CB51D103F350C527F450C623E86AC72302
:02067000120076
:0E0672005B563A2045787465726E616C2049C3
:100680002F4F2076322E312E302032383042492002
:1006900032303137303230385D0A0D005D0A0D00DE
:1006A00030313233343536373839414243444546A8
:0106B0000049
:100800000201006B0E6B0F6B106B116B120002017B
:10081000020E046F066F200E056F076F8F0E086FB4
:100820000091008312000201020E096F0B6F900EFF
:100830000A6F0C6FFF0E0D6F00950087120002010A
:1008400000A302D09D9802D086D8AD6E120002019E
:10085000ABB205D0ABB409D000B50CD00ED0AB987C
:10086000AB880E3F25D00E0723D0AE500F3F20D0CF
:100870000F071ED0103F01D01007AE505B0AD8A45E
:1008800006D0D1DF5B0E3FD80201008B11D000AB48
:100890000FD05B0A5D0AD8B400895D0A34D8020122
:1008A00000A906D00099009B0001883F01D088076D
:1008B00012009D98E9CF13F2EACF12F2020100A1D3
:1008C00009D0113F01D0110706C2EAFF08C2E9FFB3
:1008D000EF6E12D006C2EAFF07C2E9FF07C208F2B4
:1008E000EE6E900EE96202D002EE20F0E950056350
:1008F00001D00081E9CF07F2009313C2E9FF12C2D1
:10090000EAFF9D881200E9CF15F2EACF14F2020146
:1009100000A509D0103F01D010070BC2EAFF0DC29D
:10092000E9FFEF6E12D00BC2EAFF0CC2E9FF0CC266
:100930000DF2EE6E000EE96202D002EE90F0E95088
:100940000A6301D00085E9CF0CF2009715C2E9FFD8
:1009500014C2EAFF1200E9CF17F2EACF16F2020141
:1009600000B319D004C2EAFF05C2E9FFEECF02F2DC
:10097000900EE96202D002EE20F0E9CF05F2E950D4
:10098000076302D000839D980091025117C2E9FFCE
:1009900016C2EAFF120017C2E9FF16C2EAFF000CF6
:1009A0009D9AE9CF19F2EACF18F2020100B719D0E7
:1009B00009C2EAFF0AC2E9FFEECF01F2000EE962C6
:1009C00002D002EE90F0E9CF0AF2E9500C6301D0B8
:1009D00000870095015119C2E9FF18C2EAFF9D8AFC
:1009E000120019C2E9FF18C2EAFF9D8A000CFE0E30
:1009F000E3CFE9FFFF0EE3CFEAFFEE50000A04E089
:100A0000000A59EC04F0F9D71200FF0EE35051D759
:100A10000001C76BC66BC56B270ED16F100ED06F70
:100A2000D051CB5FD151D8A0D13DCC5FD8A002D05E
:100A3000C72BF6D7D051CB27D151D8B0D13DCC2739
:100A4000030ED16FE80ED06FD051CB5FD151D8A03B
:100A5000D13DCC5FD8A002D0C62BF6D7D051CB2742
:100A6000D151D8B0D13DCC27C63B000ED16F640E1A
:100A7000D06FD051CB5FD151D8A0D13DCC5FD8A0A1
:100A800002D0C62BF6D7D051CB27D151D8B0D13D0B
:100A9000CC270A0ED06FD051CB5FD8A002D0C52B87
:100AA000FAD7D051CB27C53BCB51C527000C00014D
:100AB000C76BC66B640ECC5FD8A002D0C72BFBD728
:100AC000CC270A0ECC5FD8A002D0C62BFBD7CC27F0
:100AD000C63BCC51C62712000001CC51300FC76F66
:100AE000CB390F0B300FC66F2E0EC56FCB510F0BCE
:100AF000300FC46FCA390F0B300FC36FCA510F0BC1
:100B0000300FC26F000C0001CC51300FC76FCB39D2
:100B10000F0B300FC66FCB510F0B300FC56F000C92
:101000001A0FF66E100EF76ED8B0F72A000EF86EB3
:10101000D8B0F72A0900F550120020202020202007
:101020002020202020202020202074696E79525416
:10103000582066726F6D2E2E2E20537963616D6F6E
:10104000726520536F6674776172652C20496E63F8
:101050002E20202020205348696767696E734074F2
:10106000696E795254582E636F6D20202020202005
:0A1070002020202020202020202036
:06107A0003011051D4EC4B
:0A10800002F08FD096D0A0D0A7D0C8
:06108A00010072060000E7
:08109000840300003F00000092
:08109800800EF36E00EE00F083
:1010A0000F0E01D81200EA6002D0EE6AFCD7F350AE
:0810B000E9601200EE6AFCD7B2
:0810B80014EE00F024EE00F03C
:1010C000F86A089C28EC00F077EC00F0D8EC00F00F
:0410D000FBD7120038
:10110000000E0301076F1200100E0301066F075156
:1011100000EE89F075DFEE6E06070900F5CFEEFFF1
:10112000062FFBD7072B500E076303D0000E0301D9
:10113000076F120000EE99F008C3EEFF09C3EEFF3F
:101140000AC3EEFF0BC3EEFF0CC3EEFF200EEE6EE4
:10115000560EEE6E200EEE6E2B0EEE6E0DC3EEFFF3
:101160000EC3EEFF0FC3EEFF200EEE6E640EEE6EAA
:0A117000670EEE6E430EEE6E1200E5
:06117A00050E0F01C86E16
:10118000280E0F01C66E800E0F01C76E12000301FC
:10119000102B73D79A0E0001AC6F000E0301106F75
:1011A0006CD7010E0001B06F010EAD6FB46F61EF2F
:1011B00002F00001B751400BD8A403D0030110077F
:1011C00002D00301102B59D7000E0001B06F010EA1
:1011D000AD6FB46F61EF02F0B7C011F30001873F4C
:1011E000F3EF08F0870712007F0E030111150001CD
:1011F000CC6F57EC05F0C7C0CCF0C6C0CBF083EC89
:1012000005F003EE0DF0C7C0EEFFC6C0EEFFC5C08F
:04121000EFFF1200DA
:0C121400010EC26E0C0EC16EBA0EC06E50
:10122000000E0301016F1200C30EC2160301014537
:10123000E844C2269D8CC2821200FF0EE3CF01F368
:10124000120001C300F01200C4CFF4FFC3CFF3FFBC
:101250001200C4500301026FC350036F02C3C7F0F2
:1012600003C3C6F0040E0001CC6FE30ECB6F17EC86
:1012700003F0C6C004F3C5C005F304C3CCF005C336
:10128000CBF008EC05F0C7C0CCF0C6C0CBF0C5C0B1
:10129000CAF06CEC05F003EE08F0C6C0EEFFC5C066
:1012A000EEFFC4C0EEFFC3C0EEFFC2C0EEFF1200EF
:1012B000948E948C480EB86E000EB06E560EAF6EC3
:1012C000240EAC6E900EAB6E00EC04F007EC04F054
:1012D00013EC04F09D8A1200100E0301136F00EE50
:1012E00099F0EE5059EC04F00301132FFAD70D0ECC
:1012F00059EC04F00A0E59EC04F01200D0EC04F0A2
:101300000301126FE66E71EC0EF0E56A03011251F3
:0A1310005D0AF4E184EC0EF0120017
:10180000640ED36E1200806A0F0E926E816A936826
:10181000826AC00E946E9D6A9E6A1F0ED06EC00EC4
:10182000F26E0301176B166B16C3E6FF1DEC09F091
:10183000E5520AEC09F052DA58EC09F00301156B95
:101840001BDA840EE66E030EE66EF7EC04F0E5524A
:10185000E552080ED56E0301306B1200300ECD6ECE
:101860002C0ECE6ECF0ECF6E9D80CD801200D9CFC4
:10187000E6FFE1CFD9FFE65280B602D0DF6801D0A3
:10188000DF6A03013051020A12E0030A08E0010A8C
:1018900001E017D0DF5002E0010E306F12D0DF50B0
:1018A00005E1D76AD66AD58E020E306F0AD0DF50B6
:1018B00007E0D59ED6CF2EF3D7CF2FF3010E306F92
:1018C00000D0E552E552E7CFD9FF1200020E096EB3
:1018D00003011651D880095402E3166B01D0162B70
:1018E00016C3E6FF1DEC09F0E55214EF09F01200F3
:1018F0001200D9CFE6FFE1CFD9FFE652030116511E
:10190000020A48E0030A3FE0010A01E04AD024EC61
:1019100009F0F3CF09F0F4CF0AF003011751E96E93
:10192000EA6AD890E936EA36180EE926030EEA226A
:1019300009C0EEFF0AC0EDFF070E096E1751D880EF
:10194000095402E3176B01D0172B286B296BDF6A50
:10195000DF5007080FE3EA6ADF34FE0BEA36E96E70
:10196000180EE926030EEA22EE502827EE5029230E
:10197000DF2AEED7030E0F0B05E0D890293328336A
:10198000E806FBE10ED024EC09F0F3CF2AF3F4CF04
:101990002BF307D024EC09F0F3CF2CF3F4CF2DF385
:1019A00000D0E552E552E7CFD9FF12000301826B68
:1019B000836B36D95B0EE66E0FD9E552440EE66EA8
:1019C0000BD9E55203011451F00BE842E842E8421A
:1019D000E842EA6AB20FE96E030EEA22EF50E66EC1
:1019E000FBD8E552030114510F0BEA6AB20FE96EFE
:1019F000030EEA22EF50E66EEFD8E55203012951BB
:101A0000F00BE842E842E842E842EA6AB20FE96EC7
:101A1000030EEA22EF50E66EDFD8E55203012951AA
:101A20000F0BEA6AB20FE96E030EEA22EF50E66E80
:101A3000D3D8E55203012851F00BE842E842E842CE
:101A4000E842EA6AB20FE96E030EEA22EF50E66E50
:101A5000C3D8E552030128510F0BEA6AB20FE96EB1
:101A6000030EEA22EF50E66EB7D8E55203012B5180
:101A7000F00BE842E842E842E842EA6AB20FE96E57
:101A8000030EEA22EF50E66EA7D8E55203012B5170
:101A90000F0BEA6AB20FE96E030EEA22EF50E66E10
:101AA0009BD8E55203012A51F00BE842E842E84294
:101AB000E842EA6AB20FE96E030EEA22EF50E66EE0
:101AC0008BD8E55203012A510F0BEA6AB20FE96E77
:101AD000030EEA22EF50E66E7FD8E55203012D5146
:101AE000F00BE842E842E842E842EA6AB20FE96EE7
:101AF000030EEA22EF50E66E6FD8E55203012D5136
:101B00000F0BEA6AB20FE96E030EEA22EF50E66E9F
:101B100063D8E55203012C51F00BE842E842E84259
:101B2000E842EA6AB20FE96E030EEA22EF50E66E6F
:101B300053D8E55203012C510F0BEA6AB20FE96E3C
:101B4000030EEA22EF50E66E47D8E55203012F510B
:101B5000F00BE842E842E842E842EA6AB20FE96E76
:101B6000030EEA22EF50E66E37D8E55203012F51FB
:101B70000F0BEA6AB20FE96E030EEA22EF50E66E2F
:101B80002BD8E55203012E51F00BE842E842E8421F
:101B9000E842EA6AB20FE96E030EEA22EF50E66EFF
:101BA0001BD8E55203012E510F0BEA6AB20FE96E02
:101BB000030EEA22EF50E66E0FD8E55282C3E6FF2D
:101BC00005EC05F0E552AE0EE66E030EE66EF7ECA0
:101BD00004F0E552E5521200D9CFE6FFE1CFD9FF7C
:101BE000020EE126FE0EDB50DF6E010EDB6AD9CF5E
:101BF000E9FFDACFEAFFEE5003018227EE5083239C
:101C0000FE0EDBCFE6FF05EC05F0E552020EE15CCF
:101C100002E2E16AE552E16EE552E7CFD9FF120038
:101C2000030114918150800B01E0148114938150C1
:101C3000400B01E0148314958150200B01E01485C2
:101C400014978150100B01E0148714998150080BF0
:101C500001E01489149B8150040B01E0148B149D46
:101C60008150020B01E0148D149F8150010B01E0A3
:101C7000148F141D146F120003011551010B02E0A3
:101C8000898801D089981551020B02E0898A01D018
:101C9000899A1551040B02E08B8A01D08B9A155159
:101CA000080B02E08B8801D08B981551100B02E0D5
:101CB0008B8601D08B961551200B02E08B8401D0CE
:101CC0008B941551400B02E08B8201D08B92155101
:101CD000800B02E08B8001D08B9012000301816B9E
:101CE0001200D9CFE6FFE1CFD9FF03018151812B4B
:101CF000EA6A310FE96E030EEA22FE0EDBCFEFFF38
:101D0000E552E7CFD9FF1200D9CFE6FFE1CFD9FFE7
:101D1000E652DF6A03018151DF5C1FE2DF50EA6AAD
:101D2000310FE96E030EEA22EF500A0814E0DF508B
:101D3000EA6A310FE96E030EEA22EF500D080BE05C
:101D4000DF50EA6A310FE96E030EEA22EF50E66EC9
:101D500005EC05F0E552DF2ADDD75B0E315D6CE165
:101D600032514C0A45E0040A1FE01C0A10E0060A42
:101D70000CE0040A01E060D0840EE66E030EE66E0D
:101D8000F7EC04F0E552E55257D010DE55D0335150
:101D9000310A06E0010A01E006D015696DDF03D0C3
:101DA000156B6ADF00D048D03351370A1DE0010AB5
:101DB00019E0030A15E0010A11E0070A0DE0010A23
:101DC00009E0030A05E0010A01E010D015810ED0F8
:101DD00015830CD015850AD0158708D0158906D033
:101DE000158B04D0158D02D0158F00D045DF24D07F
:101DF0003351370A1DE0010A19E0030A15E0010A10
:101E000011E0070A0DE0010A09E0030A05E0010AF2
:101E100001E010D015910ED015930CD015950AD075
:101E2000159708D0159906D0159B04D0159D02D0A2
:101E3000159F00D021DF00D051DFE552E552E7CFFA
:041E4000D9FF1200B4
:020000040030CA
:0100010006F8
:010002001FDE
:010003000EEE
:010005008377
:010006008178
:010008000FE8
:01000900C036
:01000A000FE6
:01000B00E014
:01000C000FE4
:01000D0040B2
:00000001FF
