:020000040000FA
:060000005CEF08F01200A5
:0600080080EF00F0120081
:080028000001A951C5EC02F032
:10003000A2D1A9D1D9D1EED1C6D1D1D1A4D1D4D117
:10004000E9D1A9D1DCD1B3D104D21FD2BCD1C7D15F
:100050008A0EF66E100EF76E000EF86E00010900A3
:10006000F550D86F0900F550D96F03E1D86701D07A
:100070003DD00900F550D36F0900F550D46F090049
:10008000F550D56F09000900F550E96E0900F550EB
:10009000EA6E090009000900F550D66F0900F55015
:1000A000D76F09000900F6CFDAF0F7CFDBF0F8CF11
:1000B000DCF0D3C0F6FFD4C0F7FFD5C0F8FF0001D5
:1000C000D65302E1D75307E00900F550EE6ED6078C
:1000D000F8E2D707F9D7DAC0F6FFDBC0F7FFDCC0DC
:0E00E000F8FF0001D807000ED95BBFD7120051
:0200EE001200FE
:10010000006ED8CF01F0E0CF02F0FACF03F0FBCFC2
:1001100004F0E9CF06F0EACF05F09E50200B07E08F
:100120009D50200B04E09E9A27EC04F025D09E50B1
:10013000100B07E09D50100B04E09E981FEC04F09C
:100140001BD09EA604D09E9614EC00F015D09EA065
:1001500006D09E905FEC02F0A3EC01F00DD09EACB7
:1001600008D09E9C9D9C0001862B02E10001860721
:1001700003D000000000000005C0EAFF06C0E9FF50
:1001800004C0FBFF03C0FAFF02C0E0FF01C0D8FFBC
:08019000003A003811001200D2
:080198005BEC02F0E7EC02F061
:1001A00098EC02F00001010E806F0001010E816FDA
:1001B0000001010E826F0001836B0001846B00015E
:1001C000856B0001866B0001876B0001886BBBD8D3
:1001D0005DEC02F05FEC02F061EC02F0000E000159
:1001E000E76E8719E8AE02D0873503D0E750D88094
:1001F000875512E288EC02F000018707000E00012B
:10020000E76E8719E8AE02D0873503D0E750D88073
:10021000875501E2000095D0000E0001E76E8819B5
:10022000E8AE02D0883503D0E750D880885512E276
:100230008FEC02F000018807000E0001E76E8819BC
:10024000E8AE02D0883503D0E750D880885501E267
:10025000000077D0000E0001E76E8619E8AE02D0EC
:10026000863503D0E750D880865512E27FEC02F045
:1002700000018607000E0001E76E8619E8AE02D085
:10028000863503D0E750D880865501E2000059D06A
:10029000000E0001E76E8319E8AE02D0833503D06B
:1002A000E750D880835512E264EC02F00001830726
:1002B000000E0001E76E8319E8AE02D0833503D04B
:1002C000E750D880835501E200003BD0000E0001CA
:1002D000E76E8419E8AE02D0843503D0E750D880A9
:1002E000845512E26DEC02F000018407000E00015B
:1002F000E76E8419E8AE02D0843503D0E750D88089
:10030000845501E200001DD0000E0001E76E851942
:10031000E8AE02D0853503D0E750D880855511E28C
:1003200076EC02F000018507000E0001E76E8519EA
:10033000E8AE02D0853503D0E750D880855501E27C
:1003400000004AD712000001800705E1010E806F0E
:10035000832B01E18307810705E10A0E816F842B5E
:1003600001E18407820705E1640E826F852B01E1BC
:06037000850700D0120019
:0A0376000001AB81AB9DAA51A96FF5
:100380000F01C58412000001AB8FAB91AB9DA92B6F
:100390009D86C58012000001ABAD05D0C5AC03D071
:1003A000000EA96F41D6AB9DA92BC582120000019A
:1003B000ABAD05D0C5AC03D0000EA96F35D6AB9D53
:1003C000A92BC58612000001ABAD05D0C5AC03D08A
:1003D000000EA96F29D6AB9DA92BC58412009D964E
:1003E0000001AB9F98EF02F00001A92BAB8D000E2E
:1003F000AE6FB00EAF6FAC91AC51C96E1200000180
:10040000A92BAB8D000EB56FB70EB66FAC81AC519A
:10041000C96E12000001ABAD05D0C5AC03D0000E13
:10042000A96F02D6AB8DE9CFBCF0EACFBBF0AEC06E
:10043000EAFFAFC0E9FFEE50EACFAEF0E9CFAFF090
:10044000BCC0E9FFBBC0EAFFAD2F01D0A92BC96E2C
:1004500012000001AB9DA92BE9CFBEF0EACFBDF0A1
:10046000B5C0EAFFB6C0E9FFC9CFEEFFEACFB5F0ED
:10047000E9CFB6F0BEC0E9FFBDC0EAFFB42F02D09D
:10048000C58A01D0C59AC58812000001AB9DB45140
:10049000D8A402D0A92BC8D5A907C586120000018F
:1004A000010EA96F050EAA6FBFD50001060EA96F38
:0604B0000F0EAA6FB9D582
:0A04B60000EF0CF003EF0CF02AEF4A
:1004C0000CF033EF0CF01200110EA6EC02F034EC3D
:1004D0000CF0120EA6EC02F01200210EA6EC02F0B7
:1004E00045EC0CF0220EA6EC02F01200310EA6EC48
:1004F00002F046EC0CF0320EA6EC02F01200810E77
:10050000A6EC02F047EC0CF0820EA6EC02F0120012
:10051000610EA6EC02F0620EA6EC02F01200710E63
:10052000A6EC02F07FEC09F0720EA6EC02F01200CD
:1005300001EE06F0E9CF02F1EACF01F1FA0E010176
:10054000006FEE6A002FFDD7006B1200F2CF03F1AF
:10055000F29EE9CF05F1EACF04F102C1E9FF01C142
:10056000EAFFEE6E0101002BFA0E006303D001EEEC
:1005700006F0006BE9CF02F1EACF01F105C1E9FF16
:0A05800004C1EAFF03BFF28E12006F
:06058A000001BF6FBF4736
:10059000BF51FD26D8B0FE2A12000001BF6FBF4731
:1005A000BF47BF51FD26D8B0FE2A12000F0E786E4D
:1005B000A50E796E690E7A6EC30E7B6EE10E7C6EAF
:1005C000D20E7D6E870E7E6E4B0E7F6EFF00786AB8
:1005D000796A7A6A7B6A7C6A7D6A7E6A7F6A1200BF
:1005E000C7C0D1F0C6C0D0F00001CC51D103F4CFC8
:1005F000C7F0F3CFC6F0CB51D003F4CFC5F0F3CFA3
:10060000C4F0CC51D003F350C527F450C623E86A98
:10061000C723CB51D103F350C527F450C623E86A52
:04062000C7231200DA
:0C0624005B45787465726E616C20492F94
:100630004F2076322E302E3120323830424920324F
:10064000303135303930315D0A0D00635D0A0D00FF
:1006500030313233343536373839414243444546F8
:010660000099
:100800000201006B0E6B0F6B106B116B120002017B
:10081000020E046F066F200E056F076F8F0E086FB4
:100820000091008312000201020E096F0B6F900EFF
:100830000A6F0C6FFF0E0D6F00950087120002010A
:1008400000A302D09D9802D079D8AD6E12000201AB
:10085000ABB205D0ABB409D000B50CD00ED0AB987C
:10086000AB880E3F18D00E0716D0AE500F3F13D0F6
:100870000F0711D0103F01D01007AE505D0AD8B459
:1008800000895D0A33D8020100A905D00099000152
:10089000883F01D0880712009D98E9CF13F2EACF74
:1008A00012F2020100A109D0113F01D0110706C2C6
:1008B000EAFF08C2E9FFEF6E12D006C2EAFF07C2E4
:1008C000E9FF07C208F2EE6E900EE96202D002EE76
:1008D00020F0E950056301D00081E9CF07F20093D1
:1008E00013C2E9FF12C2EAFF9D881200E9CF15F298
:1008F000EACF14F2020100A509D0103F01D0100781
:100900000BC2EAFF0DC2E9FFEF6E12D00BC2EAFF85
:100910000CC2E9FF0CC20DF2EE6E000EE96202D0CD
:1009200002EE90F0E9500A6301D00085E9CF0CF2A5
:10093000009715C2E9FF14C2EAFF1200E9CF17F2CF
:10094000EACF16F2020100B319D004C2EAFF05C2D1
:10095000E9FFEECF02F2900EE96202D002EE20F043
:10096000E9CF05F2E950076302D000839D9800911A
:10097000025117C2E9FF16C2EAFF120017C2E9FFCF
:1009800016C2EAFF000C9D9AE9CF19F2EACF18F2DD
:10099000020100B719D009C2EAFF0AC2E9FFEECF8F
:1009A00001F2000EE96202D002EE90F0E9CF0AF205
:1009B000E9500C6301D000870095015119C2E9FF8D
:1009C00018C2EAFF9D8A120019C2E9FF18C2EAFFA5
:1009D0009D8A000CFE0EE3CFE9FFFF0EE3CFEAFF96
:1009E000EE50000A04E0000A4CEC04F0F9D71200C3
:0609F000FF0EE35051D799
:0A09F6000001C76BC66BC56B270E2E
:100A0000D16F100ED06FD051CB5FD151D8A0D13D56
:100A1000CC5FD8A002D0C72BF6D7D051CB27D1516D
:100A2000D8B0D13DCC27030ED16FE80ED06FD05196
:100A3000CB5FD151D8A0D13DCC5FD8A002D0C62B7E
:100A4000F6D7D051CB27D151D8B0D13DCC27C63B1A
:100A5000000ED16F640ED06FD051CB5FD151D8A0B2
:100A6000D13DCC5FD8A002D0C62BF6D7D051CB2732
:100A7000D151D8B0D13DCC270A0ED06FD051CB5F29
:100A8000D8A002D0C52BFAD7D051CB27C53BCB512C
:100A9000C527000C0001C76BC66B640ECC5FD8A0E5
:100AA00002D0C72BFBD7CC270A0ECC5FD8A002D030
:100AB000C62BFBD7CC27C63BCC51C6271200000162
:100AC000CC51300FC76FCB390F0B300FC66F2E0EC6
:100AD000C56FCB510F0B300FC46FCA390F0B300FDE
:100AE000C36FCA510F0B300FC26F000C0001CC5105
:100AF000300FC76FCB390F0B300FC66FCB510F0BB9
:060B0000300FC56F000C70
:101000001A0FF66E100EF76ED8B0F72A000EF86EB3
:10101000D8B0F72A0900F550120020202020202007
:101020002020202020202020202074696E79525416
:10103000582066726F6D2E2E2E20537963616D6F6E
:10104000726520536F6674776172652C20496E63F8
:101050002E20202020205348696767696E734074F2
:10106000696E795254582E636F6D20202020202005
:0A1070002020202020202020202036
:06107A0003011051C5EC5A
:0A10800002F08FD096D0A0D0A7D0C8
:06108A0001002406000035
:08109000000F00003D0000000C
:08109800800EF36E00EE00F083
:1010A0000F0E01D81200EA6002D0EE6AFCD7F350AE
:0810B000E9601200EE6AFCD7B2
:0810B80014EE00F024EE00F03C
:1010C000F86A089C28EC00F077EC00F0CCEC00F01B
:0410D000FBD7120038
:10110000000E0301076F1200100E0301066F075156
:1011100000EE89F075DFEE6E06070900F5CFEEFFF1
:10112000062FFBD7072B500E076303D0000E0301D9
:10113000076F120000EE99F008C3EEFF09C3EEFF3F
:101140000AC3EEFF0BC3EEFF0CC3EEFF200EEE6EE4
:10115000560EEE6E200EEE6E2B0EEE6E0DC3EEFFF3
:101160000EC3EEFF0FC3EEFF200EEE6E640EEE6EAA
:0A117000670EEE6E430EEE6E1200E5
:06117A00050E0F01C86E16
:10118000280E0F01C66E800E0F01C76E12000301FC
:10119000102B73D79A0E0001AC6F000E0301106F75
:1011A0006CD7010E0001B06F010EAD6FB46F55EF3B
:1011B00002F00001B751400BD8A403D0030110077F
:1011C00002D00301102B59D7000E0001B06F010EA1
:1011D000AD6FB46F55EF02F0B7C011F30001873F58
:1011E000F3EF08F0870712007F0E030111150001CD
:1011F000CC6F4AEC05F0C7C0CCF0C6C0CBF076ECA3
:1012000005F003EE0DF0C7C0EEFFC6C0EEFFC5C08F
:04121000EFFF1200DA
:0C1214009280010EC26E0B0EC16EBA0E6D
:10122000C06E000E0301016F1200C30EC21603014F
:101230000145E844C2269D8CC2821200FF0EE3CF16
:1012400001F3120001C300F01200C4CFF4FFC3CFBA
:10125000F3FF1200C4500301026FC350036F02C3B7
:10126000C7F003C3C6F0040E0001CC6FE30ECB6FD2
:10127000F0EC02F0C6C004F3C5C005F304C3CCF023
:1012800005C3CBF0FBEC04F0C7C0CCF0C6C0CBF07C
:10129000C5C0CAF05FEC05F003EE08F0C6C0EEFF73
:1012A000C5C0EEFFC4C0EEFFC3C0EEFFC2C0EEFF7C
:0212B00012002A
:0E12B200948E948C480EB86E000EB06E560EE0
:1012C000AF6E240EAC6E900EAB6E00EC04F007EC2B
:1012D00004F013EC04F09D8A1200100E0301136F4A
:1012E00000EE99F0EE504CEC04F00301132FFAD706
:1012F0000D0E4CEC04F00A0E4CEC04F01200C3ECA2
:1013000004F00301126FE66EA4EC0DF0030112511C
:0A1310005D0AF5E1B7EC0DF01200E4
:10180000640ED36E1200806A0F0E926E816A936826
:10181000826AC00E946E9D6A9E6A1F0ED06EC00EC4
:10182000F26E0301176B166B16C3E6FF1EEC09F090
:10183000E5520AEC09F085D959EC09F00301156B62
:101840004ED9000EE66E0F0EE66EEAEC04F0E5529D
:10185000E5521200300ECD6E2C0ECE6ECF0ECF6E36
:101860009D80CD8012001200010E096E03011651F9
:10187000D880095402E3166B01D0162B16C3E6FF7D
:101880001EEC09F0E55215EF09F012001200D9CF55
:10189000E6FFE1CFD9FFE65203011651010A3FE00E
:1018A000010A01E043D025EC09F0F3CF09F0F4CFB1
:1018B0000AF003011751E96EEA6AD890E936EA3670
:1018C000180EE926030EEA2209C0EEFF0AC0EDFF5A
:1018D000070E096E1751D880095402E3176B01D027
:1018E000172B286B296BDF6ADF5007080FE3EA6AC2
:1018F000DF34FE0BEA36E96E180EE926030EEA2203
:10190000EE502827EE502923DF2AEED7030E0F0BC7
:1019100005E0D89029332833E806FBE107D025EC11
:1019200009F0F3CF2AF3F4CF2BF300D0E552E552C0
:10193000E7CFD9FF1200A9D85B0EE66EF8EC04F0F1
:10194000E552440EE66EF8EC04F0E5520301145142
:10195000F00BE842E842E842E842EA6A2C0FE96EFE
:101960000F0EEA22EF50E66EF8EC04F0E5520301A8
:1019700014510F0BEA6A2C0FE96E0F0EEA22EF509A
:10198000E66EF8EC04F0E55203012951F00BE84251
:10199000E842E842E842EA6A2C0FE96E0F0EEA22BA
:1019A000EF50E66EF8EC04F0E552030129510F0BFD
:1019B000EA6A2C0FE96E0F0EEA22EF50E66EF8ECA1
:1019C00004F0E55203012851F00BE842E842E842F6
:1019D000E842EA6A2C0FE96E0F0EEA22EF50E66E3B
:1019E000F8EC04F0E552030128510F0BEA6A2C0FC2
:1019F000E96E0F0EEA22EF50E66EF8EC04F0E552C5
:101A000003012B51F00BE842E842E842E842EA6A5F
:101A10002C0FE96E0F0EEA22EF50E66EF8EC04F0A0
:101A2000E55203012B510F0BEA6A2C0FE96E0F0EE2
:101A3000EA22EF50E66EF8EC04F0E55203012A5179
:101A4000F00BE842E842E842E842EA6A2C0FE96E0D
:101A50000F0EEA22EF50E66EF8EC04F0E5520301B7
:101A60002A510F0BEA6A2C0FE96E0F0EEA22EF5093
:101A7000E66EF8EC04F0E552270EE66E0F0EE66E09
:101A8000EAEC04F0E552E552120003011491815092
:101A9000800B01E0148114938150400B01E014830A
:101AA00014958150200B01E0148514978150100B80
:101AB00001E0148714998150080B01E01489149BEC
:101AC0008150040B01E0148B149D8150020B01E046
:101AD000148D149F8150010B01E0148F120003013B
:101AE0001551010B02E0898801D089981551020B2C
:101AF00002E0898A01D0899A1551040B02E08B8A91
:101B000001D08B9A1551080B02E08B8801D08B987D
:101B10001551100B02E08B8601D08B961551200BCE
:101B200002E08B8401D08B941551400B02E08B8234
:101B300001D08B921551800B02E08B8001D08B90ED
:101B400012000301546B1200D9CFE6FFE1CFD9FF99
:101B500003015451542BEA6A2C0FE96E030EEA225A
:101B6000FE0EDBCFEFFFE552E7CFD9FF1200D9CF52
:101B7000E6FFE1CFD9FFE652DF6A03015451DF5C93
:101B80001FE2DF50EA6A2C0FE96E030EEA22EF50E3
:101B90000A0814E0DF50EA6A2C0FE96E030EEA220D
:101BA000EF500D080BE0DF50EA6A2C0FE96E030ED0
:101BB000EA22EF50E66EF8EC04F0E552DF2ADDD7BA
:101BC0005B0E2C5D71E12D514C0A4AE0040A24E0C1
:101BD0001C0A15E0060A11E0100A0CE0130A01E0E5
:101BE00063D0000EE66E0F0EE66EEAEC04F0E552EE
:101BF000E5525AD0D6EC02F057D09DDE55D02E518A
:101C0000310A06E0010A01E006D0156968DF03D059
:101C1000156B65DF00D048D02E51370A1DE0010A50
:101C200019E0030A15E0010A11E0070A0DE0010AB4
:101C300009E0030A05E0010A01E010D015810ED089
:101C400015830CD015850AD0158708D0158906D0C4
:101C5000158B04D0158D02D0158F00D040DF24D015
:101C60002E51370A1DE0010A19E0030A15E0010AA6
:101C700011E0070A0DE0010A09E0030A05E0010A84
:101C800001E010D015910ED015930CD015950AD007
:101C9000159708D0159906D0159B04D0159D02D034
:101CA000159F00D01CDF00D04CDFE552E552E7CF96
:041CB000D9FF120046
:020000040030CA
:0100010006F8
:010002001FDE
:010003000EEE
:010005008377
:010006008178
:010008000FE8
:01000900C036
:01000A000FE6
:01000B00E014
:01000C000FE4
:01000D0040B2
:00000001FF
