:020000040000FA
:060000005CEF08F01200A5
:0600080080EF00F0120081
:080028000001A951D2EC02F025
:10003000ACD1B3D1E3D1F8D1D0D1DBD1AED1DED1C7
:10004000F3D1B3D1E6D1BDD10ED229D2C6D1D1D10F
:100050008A0EF66E100EF76E000EF86E0F01090094
:10006000F550736F0900F550746F03E1736701D0A9
:100070003DD00900F5506E6F0900F5506F6F090013
:10008000F550706F09000900F550E96E0900F55050
:10009000EA6E090009000900F550716F0900F5507A
:1000A000726F09000900F6CF75FFF7CF76FFF8CF22
:1000B00077FF6ECFF6FF6FCFF7FF70CFF8FF0F011E
:1000C000715302E1725307E00900F550EE6E7107BB
:1000D000F8E27207F9D775CFF6FF76CFF7FF77CF43
:0E00E000F8FF0F017307000E745BBFD712000C
:0200EE001200FE
:10010000006ED8CF01F0E0CF02F0FACF03F0FBCFC2
:1001100004F0E9CF06F0EACF05F09E50200B07E08F
:100120009D50200B04E09E9A27EC04F031D09E50A5
:10013000100B07E09D50100B04E09E981FEC04F09C
:1001400027D09EA604D09E9614EC00F021D09EA04D
:1001500006D09E9069EC02F0ADEC01F019D0F2A24D
:1001600004D0F292A3EC02F013D0F0A004D0F090EF
:10017000A4EC02F00DD09EAC08D09E9C9D9C00018A
:10018000862B02E10001860703D00000000000007A
:1001900005C0EAFF06C0E9FF04C0FBFF03C0FAFF89
:1001A00002C0E0FF01C0D8FF003A00381100120081
:1001B00065EC02F0A5EC02F00001010E806F000179
:1001C000010E816F0001010E826F0001836B00013F
:1001D000846B0001856B0001866B0001876B000159
:1001E000886BBBD867EC02F069EC02F06BEC02F0B4
:1001F000000E0001E76E8719E8AE02D0873503D004
:10020000E750D880875512E292EC02F00001870790
:10021000000E0001E76E8719E8AE02D0873503D0E3
:10022000E750D880875501E2000095D0000E00010C
:10023000E76E8819E8AE02D0883503D0E750D88041
:10024000885512E299EC02F000018807000E0001C7
:10025000E76E8819E8AE02D0883503D0E750D88021
:10026000885501E2000077D0000E0001E76E861984
:10027000E8AE02D0863503D0E750D880865512E22A
:1002800089EC02F000018607000E0001E76E861976
:10029000E8AE02D0863503D0E750D880865501E21B
:1002A000000059D0000E0001E76E8319E8AE02D0BD
:1002B000833503D0E750D880835512E26EEC02F00C
:1002C00000018307000E0001E76E8319E8AE02D03B
:1002D000833503D0E750D880835501E200003BD03E
:1002E000000E0001E76E8419E8AE02D0843503D019
:1002F000E750D880845512E277EC02F000018407C1
:10030000000E0001E76E8419E8AE02D0843503D0F8
:10031000E750D880845501E200001DD0000E000196
:10032000E76E8519E8AE02D0853503D0E750D88056
:10033000855511E280EC02F000018507000E0001F6
:10034000E76E8519E8AE02D0853503D0E750D88036
:10035000855501E200004AD712000001800705E13F
:10036000010E806F832B01E18307810705E10A0EEF
:10037000816F842B01E18407820705E1640E826F9F
:0A038000852B01E1850700D0120073
:06038A000001AB81AB9DF8
:10039000AA51A96F0F01C58412000001AB8FAB9168
:1003A000AB9DA92B9D86C58012000001ABAD05D089
:1003B000C5AC03D0000EA96F37D6AB9DA92BC58263
:1003C00012000001ABAD05D0C5AC03D0000EA96F83
:1003D0002BD6AB9DA92BC58612000001ABAD05D075
:1003E000C5AC03D0000EA96F1FD6AB9DA92BC58449
:1003F00012009D960001AB9FA2EF02F00001A92B15
:10040000AB8D000EAE6FB00EAF6FAC91AC51C96E3C
:1004100012000001A92BAB8D000EB56FB70EB66FA1
:10042000AC81AC51C96E12000001ABAD05D0C5ACBA
:1004300003D0000EA96FF8D5AB8DE9CFBCF0EACFA1
:10044000BBF0AEC0EAFFAFC0E9FFEE50EACFAEF0BE
:10045000E9CFAFF0BCC0E9FFBBC0EAFFAD2F01D0D0
:10046000A92BC96E12000001AB9DA92BE9CFBEF0EC
:10047000EACFBDF0B5C0EAFFB6C0E9FFC9CFEEFFD5
:10048000EACFB5F0E9CFB6F0BEC0E9FFBDC0EAFFE4
:10049000B42F02D0C58A01D0C59AC58812000001C8
:1004A000AB9DB451D8A402D0A92BBED5A907C5864F
:1004B00012000001010EA96F050EAA6FB5D500014B
:0A04C000060EA96F0F0EAA6FAFD54C
:0604CA0000EF0CF004EF4E
:1004D0000CF0A1EF0CF0AAEF0CF01200110EB3EC2F
:1004E00002F0DCEC0CF0120EB3EC02F01200210E64
:1004F000B3EC02F0FBEC0CF0220EB3EC02F01200B5
:10050000310EB3EC02F008EC0DF0320EB3EC02F059
:100510001200810EB3EC02F011EC0FF0820EB3EC7E
:1005200002F01200610EB3EC02F0620EB3EC02F0C6
:100530001200710EB3EC02F07EEC09F0720EB3EC17
:0A05400002F0120012001200120077
:06054A0001EE06F0E9CF0E
:1005500002F1EACF01F1FA0E0101006FEE6A002FFD
:10056000FDD7006B1200F2CF03F1F29EE9CF05F147
:10057000EACF04F102C1E9FF01C1EAFFEE6E010119
:10058000002BFA0E006303D001EE06F0006BE9CFFA
:1005900002F1EACF01F105C1E9FF04C1EAFF03BF9F
:0405A000F28E1200C5
:0C05A4000001BF6FBF47BF51FD26D8B05B
:1005B000FE2A12000001BF6FBF47BF47BF51FD2693
:0605C000D8B0FE2A120073
:0A05C600C7C0D1F0C6C0D0F000019C
:1005D000CC51D103F4CFC7F0F3CFC6F0CB51D00349
:1005E000F4CFC5F0F3CFC4F0CC51D003F350C527FE
:1005F000F450C623E86AC723CB51D103F350C52773
:0A060000F450C623E86AC723120075
:06060A005D4F5D4DB044A0
:10061000B042CD3DCD3B65336531292F292D1200E8
:100620001200A6013402AB013802ECFF00001414E2
:100630000A5B4469676974616C205472616E73204F
:100640004172676F2076302E322E302032383042A1
:10065000542D4172676F2032303137303232365D7F
:100660000A0D005D0A0D003031323334353637382B
:080670003941424344454600B4
:100800000201006B0E6B0F6B106B116B120002017B
:10081000020E046F066F200E056F076F8F0E086FB4
:100820000091008312000201020E096F0B6F900EFF
:100830000A6F0C6FFF0E0D6F00950087120002010A
:1008400000A302D09D9802D086D8AD6E120002019E
:10085000ABB205D0ABB409D000B50CD00ED0AB987C
:10086000AB880E3F25D00E0723D0AE500F3F20D0CF
:100870000F071ED0103F01D01007AE505B0AD8A45E
:1008800006D0D1DF5B0E3FD80201008B11D000AB48
:100890000FD05B0A5D0AD8B400895D0A34D8020122
:1008A00000A906D00099009B0001883F01D088076D
:1008B00012009D98E9CF13F2EACF12F2020100A1D3
:1008C00009D0113F01D0110706C2EAFF08C2E9FFB3
:1008D000EF6E12D006C2EAFF07C2E9FF07C208F2B4
:1008E000EE6E900EE96202D002EE20F0E950056350
:1008F00001D00081E9CF07F2009313C2E9FF12C2D1
:10090000EAFF9D881200E9CF15F2EACF14F2020146
:1009100000A509D0103F01D010070BC2EAFF0DC29D
:10092000E9FFEF6E12D00BC2EAFF0CC2E9FF0CC266
:100930000DF2EE6E000EE96202D002EE90F0E95088
:100940000A6301D00085E9CF0CF2009715C2E9FFD8
:1009500014C2EAFF1200E9CF17F2EACF16F2020141
:1009600000B319D004C2EAFF05C2E9FFEECF02F2DC
:10097000900EE96202D002EE20F0E9CF05F2E950D4
:10098000076302D000839D980091025117C2E9FFCE
:1009900016C2EAFF120017C2E9FF16C2EAFF000CF6
:1009A0009D9AE9CF19F2EACF18F2020100B719D0E7
:1009B00009C2EAFF0AC2E9FFEECF01F2000EE962C6
:1009C00002D002EE90F0E9CF0AF2E9500C6301D0B8
:1009D00000870095015119C2E9FF18C2EAFF9D8AFC
:1009E000120019C2E9FF18C2EAFF9D8A000CFE0E30
:1009F000E3CFE9FFFF0EE3CFEAFFEE50000A04E089
:100A0000000A59EC04F0F9D71200FF0EE35051D759
:100A10000001C76BC66BC56B270ED16F100ED06F70
:100A2000D051CB5FD151D8A0D13DCC5FD8A002D05E
:100A3000C72BF6D7D051CB27D151D8B0D13DCC2739
:100A4000030ED16FE80ED06FD051CB5FD151D8A03B
:100A5000D13DCC5FD8A002D0C62BF6D7D051CB2742
:100A6000D151D8B0D13DCC27C63B000ED16F640E1A
:100A7000D06FD051CB5FD151D8A0D13DCC5FD8A0A1
:100A800002D0C62BF6D7D051CB27D151D8B0D13D0B
:100A9000CC270A0ED06FD051CB5FD8A002D0C52B87
:100AA000FAD7D051CB27C53BCB51C527000C00014D
:100AB000C76BC66B640ECC5FD8A002D0C72BFBD728
:100AC000CC270A0ECC5FD8A002D0C62BFBD7CC27F0
:100AD000C63BCC51C62712000001CC51300FC76F66
:100AE000CB390F0B300FC66F2E0EC56FCB510F0BCE
:100AF000300FC46FCA390F0B300FC36FCA510F0BC1
:100B0000300FC26F000C0001CC51300FC76FCB39D2
:100B10000F0B300FC66FCB510F0B300FC56F000C92
:101000001A0FF66E100EF76ED8B0F72A000EF86EB3
:10101000D8B0F72A0900F550120020202020202007
:101020002020202020202020202074696E79525416
:10103000582066726F6D2E2E2E20537963616D6F6E
:10104000726520536F6674776172652C20496E63F8
:101050002E20202020205348696767696E734074F2
:10106000696E795254582E636F6D20202020202005
:0A1070002020202020202020202036
:06107A0003011051D2EC4D
:0A10800002F08FD096D0A0D0A7D0C8
:06108A0001000A0600004F
:08109000000F00006E000000DB
:08109800800EF36E00EE00F083
:1010A0000F0E01D81200EA6002D0EE6AFCD7F350AE
:0810B000E9601200EE6AFCD7B2
:0810B80014EE00F024EE00F03C
:1010C000F86A089C28EC00F077EC00F0D8EC00F00F
:0410D000FBD7120038
:10110000000E0301076F1200100E0301066F075156
:1011100000EE89F075DFEE6E06070900F5CFEEFFF1
:10112000062FFBD7072B500E076303D0000E0301D9
:10113000076F120000EE99F008C3EEFF09C3EEFF3F
:101140000AC3EEFF0BC3EEFF0CC3EEFF200EEE6EE4
:10115000560EEE6E200EEE6E2B0EEE6E0DC3EEFFF3
:101160000EC3EEFF0FC3EEFF200EEE6E640EEE6EAA
:0A117000670EEE6E430EEE6E1200E5
:06117A00050E0F01C86E16
:10118000280E0F01C66E800E0F01C76E12000301FC
:10119000102B73D79A0E0001AC6F000E0301106F75
:1011A0006CD7010E0001B06F010EAD6FB46F5FEF31
:1011B00002F00001B751400BD8A403D0030110077F
:1011C00002D00301102B59D7000E0001B06F010EA1
:1011D000AD6FB46F5FEF02F0B7C011F30001873F4E
:1011E000F3EF08F0870712007F0E030111150001CD
:1011F000CC6F57EC05F0C7C0CCF0C6C0CBF083EC89
:1012000005F003EE0DF0C7C0EEFFC6C0EEFFC5C08F
:04121000EFFF1200DA
:0C121400010EC26E0C0EC16EBA0EC06E50
:10122000000E0301016F1200C30EC2160301014537
:10123000E844C2269D8CC2821200FF0EE3CF01F368
:10124000120001C300F01200C4CFF4FFC3CFF3FFBC
:101250001200C4500301026FC350036F02C3C7F0F2
:1012600003C3C6F0040E0001CC6FE30ECB6FE3ECBA
:1012700002F0C6C004F3C5C005F304C3CCF005C337
:10128000CBF008EC05F0C7C0CCF0C6C0CBF0C5C0B1
:10129000CAF06CEC05F003EE08F0C6C0EEFFC5C066
:1012A000EEFFC4C0EEFFC3C0EEFFC2C0EEFF1200EF
:1012B000948E948C480EB86E000EB06E560EAF6EC3
:1012C000240EAC6E900EAB6E00EC04F007EC04F054
:1012D00013EC04F09D8A1200100E0301136F00EE50
:1012E00099F0EE5059EC04F00301132FFAD70D0ECC
:1012F00059EC04F00A0E59EC04F01200D0EC04F0A2
:101300000301126FE66EEEEC11F0E56A0301125173
:0A1310005D0AF4E101EC12F0120096
:10180000F26A640ED36E1200806A0F0E926E816AC5
:101810009368826AC00E946E9D6A9E6A1F0ED06E97
:10182000C00EF26E0301166B16C3E6FF1DEC09F045
:10183000E5520AEC09F0EBEC11F058EC09F0030169
:10184000156BB9EC11F0270EE66E0F0EE66EF7EC95
:1018500004F0E552E552080ED56E0301246B1D6BB2
:101860001E6B0F0118511A5D096E1B5119550A6E36
:10187000010E0F0B05E0D8900A320932E806FBE1B1
:1018800009500F0118250301286F0A500F01192173
:101890000301296F0F011C511E5D096E1F511D555B
:1018A0000A6E010E0F0B05E0D8900A320932E806E5
:1018B000FBE109500F011C2503012A6F0A500F019B
:1018C0001D2103012B6F28C32CF329C32DF3190EFF
:1018D0000F011C2503012E6F000E0F011D210301B6
:1018E0002F6F28C330F329C331F31ECF32F31FCF3C
:1018F00033F3280E325F000E335B28C334F329C361
:1019000035F32AC336F32BC337F31ACF38F31BCF83
:1019100039F3140E385F000E395B2AC33AF32BC338
:101920003BF334C340F335C341F336C342F337C30B
:1019300043F3486B496B4A6B4B6B256B266B276BEC
:101940001200300ECD6E2C0ECE6ECF0ECF6E9D805F
:10195000CD801200D9CFE6FFE1CFD9FFE65280B6A5
:1019600002D0DF6801D0DF6A03012451020A12E0CD
:10197000030A08E0010A01E01AD0DF5002E0010E7C
:10198000246F15D0DF5005E1D76AD66AD58E020ED6
:10199000246F0DD0DF500AE0D59ED6CF1DF3D7CFF0
:1019A0001EF3010E246F1F2B000E202300D0E552E2
:1019B000E552E7CFD9FF1200010E096E030116515F
:1019C000D880095402E3166B01D0162B16C3E6FF2C
:1019D0001DEC09F0E55214EC09F003012551000853
:1019E00001E225072651000801E2260727510008D9
:1019F00001E22707120003011F51201103E11D6BB3
:101A00001E6B02D01F6B206B04D84AD930EF0FF049
:101A10001200D9CFE6FFE1CFD9FF020EE12623C3A2
:101A2000DFFF8DEC11F01F0E03011415E76E010EA0
:101A3000E7CFDBFFDB50100A24E0180A1DE00C0A98
:101A400016E0060A0FE0030A08E0010A03E0580E58
:101A5000226F1CD0300E226F19D0500E226F26CF6D
:101A600027F314D0520E226F26CF27F30FD04E0E3D
:101A7000226F26CF27F30AD0440E226F26CF27F3FA
:101A800005D04C0E226F26CF27F300D01D511E111A
:101A900005E1300E216F25CF25F382D01D510F01B6
:101AA000005D03011E510F01015908E312510301AA
:101AB0001D5D0F01135103011E5906E20301780E4B
:101AC000216F25CF25F36CD00F01025103011D5D5D
:101AD0000F01035103011E590CE31D510F01005D5D
:101AE00003011E510F01015904E30301700E216F20
:101AF00057D00F01065103011D5D0F01075103016E
:101B00001E590CE31D510F01045D03011E510F010D
:101B1000055904E30301720E216F42D00F010A51EF
:101B200003011D5D0F010B5103011E590CE31D51F3
:101B30000F01085D03011E510F01095904E3030160
:101B40006E0E216F2DD00F010E5103011D5D0F018F
:101B50000F5103011E590CE31D510F010C5D0301D0
:101B60001E510F010D5904E30301640E216F18D0BB
:101B70000F01125103011D5D0F01135103011E5985
:101B80000CE31D510F01105D03011E510F0111598E
:101B900004E303016C0E216F03D003013F0E216F9C
:101BA000265107E1096A2751095C03E222C323F3A6
:101BB0000DD0255103E121C323F308D034C340F3F2
:101BC00035C341F336C342F337C343F32351580AB5
:101BD0005CE0200A5AE0470A58E0730A49E0200A0C
:101BE00047E0280A38E0200A36E02A0A27E0200ADF
:101BF00025E03C0A16E0200A14E0420A05E0600AEB
:101C000003E0200A01E042D034C340F335C341F37E
:101C100036C342F337C343F34A6B4B6B24CF26F3EF
:101C200035D038C340F339C341F33AC342F33BC321
:101C300043F34A694B6B24CF26F328D034C340F3D7
:101C400035C341F336C342F337C343F34A6B4B6B9F
:101C500024CF26F31BD02CC340F32DC341F32EC356
:101C600042F32FC343F34A6B4B6924CF26F30ED0C4
:101C700030C340F331C341F332C342F333C343F3C0
:101C80004A6B4B6924CF26F301D000D0020EE15CF1
:101C900002E2E16AE552E16EE552E7CFD9FF1200B8
:101CA0000301000ED8803C55000E3D5551E24A51CB
:101CB00002E049514AE03C510F012025096E030121
:101CC0003D510F0121210A6E03014051095C415130
:101CD0000A5811E33C510F012025096E03013D51C3
:101CE0000F0121210A6E03014051095C446F4151EB
:101CF0000A58456F10D03C510F012025096E030191
:101D00003D510F0121210A6E09500301405D446FCE
:101D10000A504159456F44510F01145D030145516B
:101D20000F0115590DE203013C51405D3D514159F0
:101D300003E21591158302D015811593486B04D0E9
:101D4000030115911593486902D01591159302D09E
:101D500015911593000ED8803E55000E3F5551E267
:101D60004B5102E048514AE03E510F012225096ED5
:101D700003013F510F0123210A6E03014251095C07
:101D800043510A5811E33E510F012225096E030108
:101D90003F510F0123210A6E03014251095C466F36
:101DA00043510A58476F10D03E510F012225096E4A
:101DB00003013F510F0123210A6E09500301425DC7
:101DC000466F0A504359476F46510F01165D030194
:101DD00047510F0117590DE203013E51425D3F513A
:101DE000435903E21595158702D015851597496B60
:101DF00004D0030115951597496902D015951597DB
:101E000002D015951597B5DA03014A5104E04B51FC
:101E100002E04A6B4B6B485103E0495101E0266BED
:101E2000120003011651020A13E0030A0AE0010A34
:101E300001E015D024EC09F0F3CF17F3F4CF18F339
:101E40000ED024EC09F0F3CF19F3F4CF1AF307D036
:101E500024EC09F0F3CF1BF3F4CF1CF300D01200F5
:101E6000D9CFE6FFE1CFD9FFE65217C33CF318C341
:101E70003DF319C33EF31AC33FF314C3DFFF5B0EF8
:101E8000E66E05EC05F0E55203011E51F00BE84249
:101E9000E842E842E842EA6A5D0FE96E0F0EEA2284
:101EA000EF50E66E05EC05F0E55203011E510F0BF5
:101EB000EA6A5D0FE96E0F0EEA22EF50E66E05EC5E
:101EC00005F0E55203011D51F00BE842E842E842FB
:101ED000E842EA6A5D0FE96E0F0EEA22EF50E66E05
:101EE00005EC05F0E55203011D510F0BEA6A5D0F89
:101EF000E96E0F0EEA22EF50E66E05EC05F0E552B2
:101F0000200EE66E05EC05F0E552D9CFE9FFDACFF9
:101F1000EAFFEF50F00BE842E842E842E842EA6AA2
:101F20005D0FE96E0F0EEA22EF50E66E05EC05F04C
:101F3000E552D9CFE9FFDACFEAFFEF500F0BEA6A9B
:101F40005D0FE96E0F0EEA22EF50E66E05EC05F02C
:101F5000E552200EE66E05EC05F0E552DF1CDF6E63
:101F6000D9CFE9FFDACFEAFFEF50F00BE842E842C1
:101F7000E842E842EA6A5D0FE96E0F0EEA22EF508E
:101F8000E66E05EC05F0E552D9CFE9FFDACFEAFFBE
:101F9000EF500F0BEA6A5D0FE96E0F0EEA22EF5069
:101FA000E66E05EC05F0E552200EE66E05EC05F058
:101FB000E55203013D51F00BE842E842E842E842B5
:101FC000EA6A5D0FE96E0F0EEA22EF50E66E05EC4D
:101FD00005F0E55203013D510F0BEA6A5D0FE96E12
:101FE0000F0EEA22EF50E66E05EC05F0E552030114
:101FF0003C51F00BE842E842E842E842EA6A5D0FF1
:10200000E96E0F0EEA22EF50E66E05EC05F0E552A0
:1020100003013C510F0BEA6A5D0FE96E0F0EEA22D5
:10202000EF50E66E05EC05F0E552200EE66E05EC8D
:1020300005F0E55203013F51F00BE842E842E84267
:10204000E842EA6A5D0FE96E0F0EEA22EF50E66E93
:1020500005EC05F0E55203013F510F0BEA6A5D0FF5
:10206000E96E0F0EEA22EF50E66E05EC05F0E55240
:1020700003013E51F00BE842E842E842E842EA6AD6
:102080005D0FE96E0F0EEA22EF50E66E05EC05F0EB
:10209000E55203013E510F0BEA6A5D0FE96E0F0E28
:1020A000EA22EF50E66E05EC05F0E552200EE66EF2
:1020B00005EC05F0E55203014151F00BE842E8421E
:1020C000E842E842EA6A5D0FE96E0F0EEA22EF503D
:1020D000E66E05EC05F0E552030141510F0BEA6A8B
:1020E0005D0FE96E0F0EEA22EF50E66E05EC05F08B
:1020F000E55203014051F00BE842E842E842E84271
:10210000EA6A5D0FE96E0F0EEA22EF50E66E05EC0B
:1021100005F0E552030140510F0BEA6A5D0FE96ECD
:102120000F0EEA22EF50E66E05EC05F0E552200EA8
:10213000E66E05EC05F0E55203014351F00BE84271
:10214000E842E842E842EA6A5D0FE96E0F0EEA22D1
:10215000EF50E66E05EC05F0E552030143510F0B1D
:10216000EA6A5D0FE96E0F0EEA22EF50E66E05ECAB
:1021700005F0E55203014251F00BE842E842E84223
:10218000E842EA6A5D0FE96E0F0EEA22EF50E66E52
:1021900005EC05F0E552030142510F0BEA6A5D0FB1
:1021A000E96E0F0EEA22EF50E66E05EC05F0E552FF
:1021B000200EE66E05EC05F0E55203014551F00BEB
:1021C000E842E842E842E842EA6A5D0FE96E0F0E33
:1021D000EA22EF50E66E05EC05F0E55203014551A9
:1021E0000F0BEA6A5D0FE96E0F0EEA22EF50E66E02
:1021F00005EC05F0E55203014451F00BE842E842DA
:10220000E842E842EA6A5D0FE96E0F0EEA22EF50FB
:10221000E66E05EC05F0E552030144510F0BEA6A46
:102220005D0FE96E0F0EEA22EF50E66E05EC05F049
:10223000E552200EE66E05EC05F0E552030147512C
:10224000F00BE842E842E842E842EA6A5D0FE96ED4
:102250000F0EEA22EF50E66E05EC05F0E5520301A1
:1022600047510F0BEA6A5D0FE96E0F0EEA22EF503D
:10227000E66E05EC05F0E55203014651F00BE8422D
:10228000E842E842E842EA6A5D0FE96E0F0EEA2290
:10229000EF50E66E05EC05F0E552030146510F0BD9
:1022A000EA6A5D0FE96E0F0EEA22EF50E66E05EC6A
:1022B00005F0E552200EE66E05EC05F0E55203014F
:1022C00015510F0BEA6A5D0FE96E0F0EEA22EF500F
:1022D000E66E05EC05F0E552200EE66E05EC05F025
:1022E000E55222C3E6FF05EC05F0E55221C3E6FF07
:1022F00005EC05F0E55223C3E6FF05EC05F0E552D9
:10230000590EE66E0F0EE66EF7EC04F0E552E5525C
:10231000E552E552E7CFD9FF120003011491815035
:10232000800B01E0148114938150400B01E0148371
:1023300014958150200B01E0148514978150100BE7
:1023400001E0148714998150080B01E01489149B53
:102350008150040B01E0148B149D8150020B01E0AD
:10236000148D149F8150010B01E0148F141D146F04
:10237000120003011551010B02E0898801D08998F0
:102380001551020B02E0898A01D0899A1551040B7C
:1023900002E08B8A01D08B9A1551080B02E08B88E2
:1023A00001D08B981551100B02E08B8601D08B96D3
:1023B0001551200B02E08B8401D08B941551400BFA
:1023C00002E08B8201D08B921551800B02E08B8052
:1023D00001D08B90120003019C6B1200D9CFE6FF55
:1023E000E1CFD9FF03019C519C2BEA6A4C0FE96EA7
:1023F000030EEA22FE0EDBCFEFFFE552E7CFD9FF57
:102400001200D9CFE6FFE1CFD9FFE652DF6A030120
:102410009C51DF5C1FE2DF50EA6A4C0FE96E030E4D
:10242000EA22EF500A0814E0DF50EA6A4C0FE96E26
:10243000030EEA22EF500D080BE0DF50EA6A4C0F62
:10244000E96E030EEA22EF50E66E05EC05F0E55268
:10245000DF2ADDD75B0E4C5D0DE14D51560A01E0E0
:1024600009D0270EE66E0F0EE66EF7EC04F0E5528B
:10247000E55200D0B0DFE552E552E7CFD9FF1200B8
:020000040030CA
:0100010006F8
:010002001FDE
:010003000EEE
:010005008377
:010006008178
:010008000FE8
:01000900C036
:01000A000FE6
:01000B00E014
:01000C000FE4
:01000D0040B2
:00000001FF
