:020000040000FA
:0600000056EF08F01200AB
:0600080080EF00F0120081
:080028000001A951D6EC02F021
:10003000AED1B5D1E5D1FAD1D2D1DDD1B0D1E0D1B7
:10004000F5D1B5D1E8D1BFD110D22BD2C8D1D3D1FF
:100050008A0EF66E100EF76E000EF86E00010900A3
:10006000F550D86F0900F550D96F03E1D86701D07A
:100070003DD00900F550D36F0900F550D46F090049
:10008000F550D56F09000900F550E96E0900F550EB
:10009000EA6E090009000900F550D66F0900F55015
:1000A000D76F09000900F6CFDAF0F7CFDBF0F8CF11
:1000B000DCF0D3C0F6FFD4C0F7FFD5C0F8FF0001D5
:1000C000D65302E1D75307E00900F550EE6ED6078C
:1000D000F8E2D707F9D7DAC0F6FFDBC0F7FFDCC0DC
:0E00E000F8FF0001D807000ED95BBFD7120051
:0200EE001200FE
:10010000006ED8CF01F0E0CF02F0FACF03F0FBCFC2
:1001100004F0E9CF06F0EACF05F09E50200B07E08F
:100120009D50200B04E09E9A27EC04F031D09E50A5
:10013000100B07E09D50100B04E09E981FEC04F09C
:1001400027D09EA604D09E9614EC00F021D09EA04D
:1001500006D09E906BEC02F0AFEC01F019D0F2A249
:1001600004D0F292A5EC02F013D0F0A004D0F090ED
:10017000A7EC02F00DD09EAC08D09E9C9D9C000187
:10018000862B02E10001860703D00000000000007A
:1001900005C0EAFF06C0E9FF04C0FBFF03C0FAFF89
:1001A00002C0E0FF01C0D8FF003A00381100120081
:1001B00067EC02F0F8EC02F0A9EC02F00001010E8D
:1001C000806F0001010E816F0001010E826F00013E
:1001D000836B0001846B0001856B0001866B00015D
:1001E000876B0001886BBBD869EC02F06BEC02F006
:1001F0006DEC02F0000E0001E76E8719E8AE02D048
:10020000873503D0E750D880875512E294EC02F08E
:1002100000018707000E0001E76E8719E8AE02D0E3
:10022000873503D0E750D880875501E2000095D08C
:10023000000E0001E76E8819E8AE02D0883503D0C1
:10024000E750D880885512E29BEC02F00001880745
:10025000000E0001E76E8819E8AE02D0883503D0A1
:10026000E750D880885501E2000077D0000E0001E9
:10027000E76E8619E8AE02D0863503D0E750D88005
:10028000865512E28BEC02F000018607000E000199
:10029000E76E8619E8AE02D0863503D0E750D880E5
:1002A000865501E2000059D0000E0001E76E831967
:1002B000E8AE02D0833503D0E750D880835512E2F0
:1002C00070EC02F000018307000E0001E76E831955
:1002D000E8AE02D0833503D0E750D880835501E2E1
:1002E00000003BD0000E0001E76E8419E8AE02D09A
:1002F000843503D0E750D880845512E279EC02F0BF
:1003000000018407000E0001E76E8419E8AE02D0F8
:10031000843503D0E750D880845501E200001DD019
:10032000000E0001E76E8519E8AE02D0853503D0D6
:10033000E750D880855511E282EC02F00001850774
:10034000000E0001E76E8519E8AE02D0853503D0B6
:10035000E750D880855501E200004AD7120000011D
:10036000800705E1010E806F832B01E18307810780
:1003700005E1050E816F842B01E18407820705E109
:0E038000640E826F852B01E1850700D012000C
:02038E0000016C
:10039000AB81AB9DAA51A96F0F01C584120000016A
:1003A000AB8FAB91AB9DA92B9D86C5801200000140
:1003B000ABAD05D0C5AC03D0000EA96F35D6AB9D53
:1003C000A92BC58212000001ABAD05D0C5AC03D08E
:1003D000000EA96F29D6AB9DA92BC586120000017E
:1003E000ABAD05D0C5AC03D0000EA96F1DD6AB9D3B
:1003F000A92BC58412009D960001AB9FA4EF02F0CB
:100400000001A92BAB8D000EAE6FB00EAF6FAC919B
:10041000AC51C96E12000001A92BAB8D000EB56F57
:10042000B70EB66FAC81AC51C96E12000001ABAD16
:1004300005D0C5AC03D0000EA96FF6D5AB8DE9CFC2
:10044000BCF0EACFBBF0AEC0EAFFAFC0E9FFEE50B0
:10045000EACFAEF0E9CFAFF0BCC0E9FFBBC0EAFF26
:10046000AD2F01D0A92BC96E12000001AB9DA92BA5
:10047000E9CFBEF0EACFBDF0B5C0EAFFB6C0E9FFF4
:10048000C9CFEEFFEACFB5F0E9CFB6F0BEC0E9FFC5
:10049000BDC0EAFFB42F02D0C58A01D0C59AC58875
:1004A00012000001AB9DB451D8A402D0A92BBCD539
:1004B000A907C58612000001010EA96F050EAA6FDB
:0E04C000B3D50001060EA96F0F0EAA6FADD5C1
:0204CE0000EF3D
:1004D0000CF003EF0CF063EF0CF06CEF0CF012007B
:1004E000110EB7EC02F06DEC0CF0120EB7EC02F04E
:1004F0001200210EB7EC02F074EC0CF0220EB7ECF7
:1005000002F01200310EB7EC02F029EC11F0320EBD
:10051000B7EC02F01200810EB7EC02F02AEC11F0F9
:10052000820EB7EC02F01200610EB7EC02F0620E20
:10053000B7EC02F01200710EB7EC02F07EEC09F09D
:10054000720EB7EC02F01200120064EF15F08FEF9C
:0205500015F0A4
:0E05520001EE06F0E9CF02F1EACF01F1FA0E58
:100560000101006FEE6A002FFDD7006B1200F2CF81
:1005700003F1F29EE9CF05F1EACF04F102C1E9FFF0
:1005800001C1EAFFEE6E0101002BFA0E006303D0F9
:1005900001EE06F0006BE9CF02F1EACF01F105C1EF
:0C05A000E9FF04C1EAFF03BFF28E120065
:0405AC000001BF6F1C
:1005B000BF47BF51FD26D8B0FE2A12000001BF6F11
:1005C000BF47BF47BF51FD26D8B0FE2A12000F0E0D
:1005D000786EA50E796E690E7A6EC30E7B6EE10E93
:1005E0007C6ED20E7D6E870E7E6E4B0E7F6EFF0090
:1005F000786A796A7A6A7B6A7C6A7D6A7E6A7F6ACF
:100600001200000EF66EF76EF86E0900EF0EF5623E
:100610000ED00900010EF5620AD00900F00EF56255
:1006200006D008007D0EF56202D0FF0E1200000E0B
:020630001200B6
:0E063200C7C0D1F0C6C0D0F00001CC51D1033A
:10064000F4CFC7F0F3CFC6F0CB51D003F4CFC5F051
:10065000F3CFC4F0CC51D003F350C527F450C623D8
:10066000E86AC723CB51D103F350C527F450C62302
:06067000E86AC723120036
:100800000201006B0E6B0F6B106B116B120002017B
:10081000020E046F066F200E056F076F8F0E086FB4
:100820000091008312000201020E096F0B6F900EFF
:100830000A6F0C6FFF0E0D6F00950087120002010A
:1008400000A302D09D9802D086D8AD6E120002019E
:10085000ABB205D0ABB409D000B50CD00ED0AB987C
:10086000AB880E3F25D00E0723D0AE500F3F20D0CF
:100870000F071ED0103F01D01007AE505B0AD8A45E
:1008800006D0D1DF5B0E3FD80201008B11D000AB48
:100890000FD05B0A5D0AD8B400895D0A34D8020122
:1008A00000A906D00099009B0001883F01D088076D
:1008B00012009D98E9CF13F2EACF12F2020100A1D3
:1008C00009D0113F01D0110706C2EAFF08C2E9FFB3
:1008D000EF6E12D006C2EAFF07C2E9FF07C208F2B4
:1008E000EE6E900EE96202D002EE20F0E950056350
:1008F00001D00081E9CF07F2009313C2E9FF12C2D1
:10090000EAFF9D881200E9CF15F2EACF14F2020146
:1009100000A509D0103F01D010070BC2EAFF0DC29D
:10092000E9FFEF6E12D00BC2EAFF0CC2E9FF0CC266
:100930000DF2EE6E000EE96202D002EE90F0E95088
:100940000A6301D00085E9CF0CF2009715C2E9FFD8
:1009500014C2EAFF1200E9CF17F2EACF16F2020141
:1009600000B319D004C2EAFF05C2E9FFEECF02F2DC
:10097000900EE96202D002EE20F0E9CF05F2E950D4
:10098000076302D000839D980091025117C2E9FFCE
:1009900016C2EAFF120017C2E9FF16C2EAFF000CF6
:1009A0009D9AE9CF19F2EACF18F2020100B719D0E7
:1009B00009C2EAFF0AC2E9FFEECF01F2000EE962C6
:1009C00002D002EE90F0E9CF0AF2E9500C6301D0B8
:1009D00000870095015119C2E9FF18C2EAFF9D8AFC
:1009E000120019C2E9FF18C2EAFF9D8A000CFE0E30
:1009F000E3CFE9FFFF0EE3CFEAFFEE50000A04E089
:100A0000000A59EC04F0F9D71200FF0EE35051D759
:100A10000001C76BC66BC56B270ED16F100ED06F70
:100A2000D051CB5FD151D8A0D13DCC5FD8A002D05E
:100A3000C72BF6D7D051CB27D151D8B0D13DCC2739
:100A4000030ED16FE80ED06FD051CB5FD151D8A03B
:100A5000D13DCC5FD8A002D0C62BF6D7D051CB2742
:100A6000D151D8B0D13DCC27C63B000ED16F640E1A
:100A7000D06FD051CB5FD151D8A0D13DCC5FD8A0A1
:100A800002D0C62BF6D7D051CB27D151D8B0D13D0B
:100A9000CC270A0ED06FD051CB5FD8A002D0C52B87
:100AA000FAD7D051CB27C53BCB51C527000C00014D
:100AB000C76BC66B640ECC5FD8A002D0C72BFBD728
:100AC000CC270A0ECC5FD8A002D0C62BFBD7CC27F0
:100AD000C63BCC51C62712000001CC51300FC76F66
:100AE000CB390F0B300FC66F2E0EC56FCB510F0BCE
:100AF000300FC46FCA390F0B300FC36FCA510F0BC1
:100B0000300FC26F000C0001CC51300FC76FCB39D2
:100B10000F0B300FC66FCB510F0B300FC56F000C92
:100B2000D9CFE6FFE1CFD9FF030EE126FE0EDB5061
:100B3000DF6EFD0EDB50E76E010EE7CFDBFFD9CF96
:100B4000E9FFDACFEAFFEF50010B02E08B8801D01A
:100B50008B98D9CFE9FFDACFEAFFEF50020B02E022
:100B60008B8601D08B96D950010FE96EDACFEAFF60
:100B7000EF50010B02E08B8401D08B94D950010F10
:100B8000E96EDACFEAFFEF50020B02E08B8201D070
:100B90008B92D950010FE96EDACFEAFFEF50040BC8
:100BA00002E08B8001D08B90938E938C938A9388F4
:100BB0009288928A9284948A8986899200000000A1
:100BC000D950020FE96EDACFEAFF8150800B02E0C4
:100BD000EF8001D0EF90D950020FE96EDACFEAFF33
:100BE0008150400B02E0EF8201D0EF92D950020F0A
:100BF000E96EDACFEAFF8150200B02E0EF8401D0EA
:100C0000EF94D950020FE96EDACFEAFF8150100B52
:100C100002E0EF8601D0EF96D950020FE96EDACFED
:100C2000EAFF8050100B02E0EF8801D0EF98D95016
:100C3000020FE96EDACFEAFF8050200B02E0EF8A64
:100C400001D0EF9AD950020FE96EDACFEAFF805057
:100C5000040B02E0EF8C01D0EF9CD950020FE96E3B
:100C6000DACFEAFF8250200B02E0EF8E01D0EF9E38
:100C70008982020EDB5000D0096E030EE15C02E2B5
:100C8000E16AE552E16E0950E552E7CFD9FF120063
:100C9000D9CFE6FFE1CFD9FF030EE126FE0EDB50F0
:100CA000DF6EFD0EDB50E76E010EE7CFDBFFFC0EC3
:100CB000DB50E76E020EE7CFDBFFD9CFE9FFDACFDB
:100CC000EAFFEF50010B02E08B8801D08B98D9CF5F
:100CD000E9FFDACFEAFFEF50020B02E08B8601D08A
:100CE0008B96D950010FE96EDACFEAFFEF50010B76
:100CF00002E08B8401D08B94D950010FE96EDACFDA
:100D0000EAFFEF50020B02E08B8201D08B92D950A8
:100D1000010FE96EDACFEAFFEF50040B02E08B809F
:100D200001D08B90939E939C939A93989298929AC9
:100D30009294949AD950020FE96EDACFEAFFEF50FD
:100D4000010B02E08A8E01D08A9ED950020FE96E13
:100D5000DACFEAFFEF50020B02E08A8C01D08A9CC6
:100D6000D950020FE96EDACFEAFFEF50040B02E030
:100D70008A8A01D08A9AD950020FE96EDACFEAFF47
:100D8000EF50080B02E08A8801D08A98D950020FF0
:100D9000E96EDACFEAFFEF50100B02E0898801D04C
:100DA0008998D950020FE96EDACFEAFFEF50200B95
:100DB00002E0898A01D0899AD950020FE96EDACF10
:100DC000EAFFEF50400B02E0898401D08994D950AA
:100DD000020FE96EDACFEAFFEF50800B02E08B8A58
:100DE00001D08B9A89828996000000008986030EC3
:100DF000E15C02E2E16AE552E16EE552E7CFD9FF3C
:020E00001200DE
:101000001A0FF66E100EF76ED8B0F72A000EF86EB3
:10101000D8B0F72A0900F550120020202020202007
:101020002020202020202020202074696E79525416
:10103000582066726F6D2E2E2E20537963616D6F6E
:10104000726520536F6674776172652C20496E63F8
:101050002E20202020205348696767696E734074F2
:10106000696E795254582E636F6D20202020202005
:0A1070002020202020202020202036
:06107A0003011051D6EC49
:0A10800002F08FD096D0A0D0A7D0C8
:02108A00000064
:04108C00800EF36E71
:1010900000EE00F00F0E01D81200EA6002D0EE6AF6
:0C10A000FCD7F350E9601200EE6AFCD7A8
:0410AC0014EE00F04E
:1010B00024EE00F0F86A089C28EC00F077EC00F0D1
:0810C000D8EC00F0FBD7120090
:10110000000E0301076F1200100E0301066F075156
:1011100000EE89F075DFEE6E06070900F5CFEEFFF1
:10112000062FFBD7072B500E076303D0000E0301D9
:10113000076F120000EE99F008C3EEFF09C3EEFF3F
:101140000AC3EEFF0BC3EEFF0CC3EEFF200EEE6EE4
:10115000560EEE6E200EEE6E2B0EEE6E0DC3EEFFF3
:101160000EC3EEFF0FC3EEFF200EEE6E640EEE6EAA
:0A117000670EEE6E430EEE6E1200E5
:06117A00050E0F01C86E16
:10118000280E0F01C66E800E0F01C76E12000301FC
:10119000102B73D79A0E0001AC6F000E0301106F75
:1011A0006CD7010E0001B06F010EAD6FB46F61EF2F
:1011B00002F00001B751400BD8A403D0030110077F
:1011C00002D00301102B59D7000E0001B06F010EA1
:1011D000AD6FB46F61EF02F0B7C011F30001873F4C
:1011E000F3EF08F0870712007F0E030111150001CD
:1011F000CC6F57EC05F0C7C0CCF0C6C0CBF083EC89
:1012000005F003EE0DF0C7C0EEFFC6C0EEFFC5C08F
:04121000EFFF1200DA
:0C121400000EC26E0F0EC16EBA0EC06E4E
:10122000000E0301016F1200C30EC2160301014537
:10123000E844C2269D8CC2821200FF0EE3CF01F368
:10124000120001C300F01200C4CFF4FFC3CFF3FFBC
:101250001200C4500301026FC350036F02C3C7F0F2
:1012600003C3C6F0040E0001CC6FE30ECB6F19EC84
:1012700003F0C6C004F3C5C005F304C3CCF005C336
:10128000CBF008EC05F0C7C0CCF0C6C0CBF0C5C0B1
:10129000CAF06CEC05F003EE08F0C6C0EEFFC5C066
:1012A000EEFFC4C0EEFFC3C0EEFFC2C0EEFF1200EF
:1012B000948E948C480EB86E000EB06E560EAF6EC3
:1012C000240EAC6E900EAB6E00EC04F007EC04F054
:1012D00013EC04F09D8A1200100E0301136F00EE50
:1012E00099F0EE5059EC04F00301132FFAD70D0ECC
:1012F00059EC04F00A0E59EC04F01200D0EC04F0A2
:101300000301126FE66E2EEC11F0E56A0301125133
:0A1310005D0AF4E141EC11F0120057
:10180000640ED36E1200D9CFE6FFE1CFD9FF030EED
:10181000E126806A926A816A0F0E936E826AC00E18
:10182000946E9D6A9E6A1F0ED06EC00EF26E0AEC18
:1018300009F02BEC11F058EC09F003019791978314
:10184000978597979799979B979D979F9891206BCE
:10185000216B010E1B6F92EC14F003012E6B2F6BAA
:10186000306B316B326B336B346B356B366B376B84
:10187000386B396BD56A1A6BD950010FE96EDACF24
:10188000EAFF720EEE6E2B0EED6E010EDBCFF6FF51
:10189000DB2A020EDBCFF7FF01E3DB2A0800F5505D
:1018A000DF6EDF5006E0DFCFE6FF05EC05F0E55226
:1018B000ECD7030EE15C02E2E16AE552E16EE5522B
:1018C000E7CFD9FF1200300ECD6E2C0ECE6ECF0EAC
:1018D000CF6E9D80CD8012001200030198A103D02D
:1018E000202B000E21231200D9CFE6FFE1CFD9FF34
:1018F000030EE126030197B505D0977797A702D08D
:101900001FEF11F02BEC15F0040EE66E070EE66EDD
:10191000E66A48EC06F0E552E552E552040EE66E42
:10192000070EE66E010EE66E48EC06F0E552E55253
:10193000E552040EE66E070EE66E020EE66E48EC09
:1019400006F0E552E552E552040EE66E070EE66E2D
:10195000030EE66E48EC06F0E552E552E552060E3F
:10196000E66EE66A90EC05F0E552E5520301246F5D
:10197000050EE66EE66A90EC05F0E552E5520301CD
:10198000236F040EE66EE66A90EC05F0E552E55230
:101990000301226F060EE66E010EE66E90EC05F076
:1019A000E552E5520301276F050EE66E010EE66E65
:1019B00090EC05F0E552E5520301266F040EE66E49
:1019C000010EE66E90EC05F0E552E5520301256F3D
:1019D000060EE66E020EE66E90EC05F0E552E5525C
:1019E00003012A6F050EE66E020EE66E90EC05F01E
:1019F000E552E5520301296F040EE66E020EE66E13
:101A000090EC05F0E552E5520301286F060EE66EF4
:101A1000030EE66E90EC05F0E552E55203012D6FE2
:101A2000050EE66E030EE66E90EC05F0E552E5520B
:101A300003012C6F040EE66E030EE66E90EC05F0CB
:101A4000E552E55203012B6F97A377D25B0EE66E4A
:101A500005EC05F0E552030198A14BD0540EE66E5B
:101A600005EC05F0E55203012151F00BE842E84294
:101A7000E842E842F76AAE0FF66E300EF722080031
:101A8000F550E66E05EC05F0E552030121510F0B10
:101A9000F76AAE0FF66E300EF7220800F550E66ECC
:101AA00005EC05F0E55203012051F00BE842E84255
:101AB000E842E842F76AAE0FF66E300EF7220800F1
:101AC000F550E66E05EC05F0E552030120510F0BD1
:101AD000F76AAE0FF66E300EF7220800F550E66E8C
:101AE00005EC05F0E5522C0EE66E05EC05F0E5522E
:101AF00005D0570EE66E05EC05F0E55203012451C2
:101B0000F00BE842E842E842E842F76AAE0FF66EB0
:101B1000300EF7220800F550E66E05EC05F0E552B0
:101B2000030124510F0BF76AAE0FF66E300EF72249
:101B30000800F550E66E05EC05F0E552030123516F
:101B4000F00BE842E842E842E842F76AAE0FF66E70
:101B5000300EF7220800F550E66E05EC05F0E55270
:101B6000030123510F0BF76AAE0FF66E300EF7220A
:101B70000800F550E66E05EC05F0E5520301225130
:101B8000F00BE842E842E842E842F76AAE0FF66E30
:101B9000300EF7220800F550E66E05EC05F0E55230
:101BA000030122510F0BF76AAE0FF66E300EF722CB
:101BB0000800F550E66E05EC05F0E5522C0EE66ED9
:101BC00005EC05F0E55203012751F00BE842E8422D
:101BD000E842E842F76AAE0FF66E300EF7220800D0
:101BE000F550E66E05EC05F0E552030127510F0BA9
:101BF000F76AAE0FF66E300EF7220800F550E66E6B
:101C000005EC05F0E55203012651F00BE842E842ED
:101C1000E842E842F76AAE0FF66E300EF72208008F
:101C2000F550E66E05EC05F0E552030126510F0B69
:101C3000F76AAE0FF66E300EF7220800F550E66E2A
:101C400005EC05F0E55203012551F00BE842E842AE
:101C5000E842E842F76AAE0FF66E300EF72208004F
:101C6000F550E66E05EC05F0E552030125510F0B2A
:101C7000F76AAE0FF66E300EF7220800F550E66EEA
:101C800005EC05F0E552030197ABCAD02C0EE66EC9
:101C900005EC05F0E55203012A51F00BE842E84259
:101CA000E842E842F76AAE0FF66E300EF7220800FF
:101CB000F550E66E05EC05F0E55203012A510F0BD5
:101CC000F76AAE0FF66E300EF7220800F550E66E9A
:101CD00005EC05F0E55203012951F00BE842E8421A
:101CE000E842E842F76AAE0FF66E300EF7220800BF
:101CF000F550E66E05EC05F0E552030129510F0B96
:101D0000F76AAE0FF66E300EF7220800F550E66E59
:101D100005EC05F0E55203012851F00BE842E842DA
:101D2000E842E842F76AAE0FF66E300EF72208007E
:101D3000F550E66E05EC05F0E552030128510F0B56
:101D4000F76AAE0FF66E300EF7220800F550E66E19
:101D500005EC05F0E5522C0EE66E05EC05F0E552BB
:101D600003012D51F00BE842E842E842E842F76AED
:101D7000AE0FF66E300EF7220800F550E66E05EC59
:101D800005F0E55203012D510F0BF76AAE0FF66E09
:101D9000300EF7220800F550E66E05EC05F0E5522E
:101DA00003012C51F00BE842E842E842E842F76AAE
:101DB000AE0FF66E300EF7220800F550E66E05EC19
:101DC00005F0E55203012C510F0BF76AAE0FF66ECA
:101DD000300EF7220800F550E66E05EC05F0E552EE
:101DE00003012B51F00BE842E842E842E842F76A6F
:101DF000AE0FF66E300EF7220800F550E66E05ECD9
:101E000005F0E55203012B510F0BF76AAE0FF66E8A
:101E1000300EF7220800F550E66E05EC05F0E552AD
:101E2000030197AF8AD02C0EE66E05EC05F0E55263
:101E300003011D51F00BE842E842E842E842F76A2C
:101E4000AE0FF66E300EF7220800F550E66E05EC88
:101E500005F0E55203011D510F0BF76AAE0FF66E48
:101E6000300EF7220800F550E66E05EC05F0E5525D
:101E700003011C51F00BE842E842E842E842F76AED
:101E8000AE0FF66E300EF7220800F550E66E05EC48
:101E900005F0E55203011C510F0BF76AAE0FF66E09
:101EA000300EF7220800F550E66E05EC05F0E5521D
:101EB0002C0EE66E05EC05F0E55203011F51F00B08
:101EC000E842E842E842E842F76AAE0FF66E300EAA
:101ED000F7220800F550E66E05EC05F0E552030127
:101EE0001F510F0BF76AAE0FF66E300EF722080087
:101EF000F550E66E05EC05F0E55203011E51F00BBE
:101F0000E842E842E842E842F76AAE0FF66E300E69
:101F1000F7220800F550E66E05EC05F0E5520301E6
:101F20001E510F0BF76AAE0FF66E300EF722080047
:101F3000F550E66E05EC05F0E552030197AD1AD0B9
:101F4000096A1651095C14E2160797A30FD05D0EBB
:101F5000E66E05EC05F0E5520A0EE66E05EC05F0BE
:101F6000E5520D0EE66E05EC05F0E55268D102D0A3
:101F700015C316F303012E51225D3A6F2F512359D9
:101F80003B6F305124593C6F3151255D3D6F3251CB
:101F900026593E6F335127593F6F3451285D406FAA
:101FA00035512959416F36512A59426F37512B5DAE
:101FB000436F38512C59446F39512D59456F97A3B0
:101FC00026D12C0EE66E05EC05F0E55203013B51DF
:101FD000F00BE842E842E842E842F76AAE0FF66EDC
:101FE000300EF7220800F550E66E05EC05F0E552DC
:101FF00003013B510F0BF76AAE0FF66E300EF7225E
:102000000800F550E66E05EC05F0E55203013A5183
:10201000F00BE842E842E842E842F76AAE0FF66E9B
:10202000300EF7220800F550E66E05EC05F0E5529B
:1020300003013A510F0BF76AAE0FF66E300EF7221E
:102040000800F550E66E05EC05F0E5522C0EE66E44
:1020500005EC05F0E55203013E51F00BE842E84281
:10206000E842E842F76AAE0FF66E300EF72208003B
:10207000F550E66E05EC05F0E55203013E510F0BFD
:10208000F76AAE0FF66E300EF7220800F550E66ED6
:1020900005EC05F0E55203013D51F00BE842E84242
:1020A000E842E842F76AAE0FF66E300EF7220800FB
:1020B000F550E66E05EC05F0E55203013D510F0BBE
:1020C000F76AAE0FF66E300EF7220800F550E66E96
:1020D00005EC05F0E552030197AB8AD02C0EE66EB5
:1020E00005EC05F0E55203014151F00BE842E842EE
:1020F000E842E842F76AAE0FF66E300EF7220800AB
:10210000F550E66E05EC05F0E552030141510F0B69
:10211000F76AAE0FF66E300EF7220800F550E66E45
:1021200005EC05F0E55203014051F00BE842E842AE
:10213000E842E842F76AAE0FF66E300EF72208006A
:10214000F550E66E05EC05F0E552030140510F0B2A
:10215000F76AAE0FF66E300EF7220800F550E66E05
:1021600005EC05F0E5522C0EE66E05EC05F0E552A7
:1021700003014451F00BE842E842E842E842F76AC2
:10218000AE0FF66E300EF7220800F550E66E05EC45
:1021900005F0E552030144510F0BF76AAE0FF66EDE
:1021A000300EF7220800F550E66E05EC05F0E5521A
:1021B00003014351F00BE842E842E842E842F76A83
:1021C000AE0FF66E300EF7220800F550E66E05EC05
:1021D00005F0E552030143510F0BF76AAE0FF66E9F
:1021E000300EF7220800F550E66E05EC05F0E552DA
:1021F0005D0EE66E05EC05F0E5520A0EE66E05ECA6
:1022000005F0E5520D0EE66E05EC05F0E55222C331
:102210002EF323C32FF324C330F325C331F326C396
:1022200032F327C333F328C334F329C335F32AC366
:1022300036F32BC337F32CC338F32DC339F3030E16
:10224000E15C02E2E16AE552E16EE552E7CFD9FFD7
:102250001200120012000301966B1200D9CFE6FFA4
:10226000E1CFD9FF03019651962BEA6A460FE96E3A
:10227000030EEA22FE0EDBCFEFFFE552E7CFD9FFD8
:102280001200D9CFE6FFE1CFD9FF040EE126020EFE
:10229000DB6A030EDB6A030197A12ED0DF6A03011C
:1022A0009651DF5C1FE2DF50EA6A460FE96E030ECB
:1022B000EA22EF500A0814E0DF50EA6A460FE96E9E
:1022C000030EEA22EF500D080BE0DF50EA6A460FDA
:1022D000E96E030EEA22EF50E66E05EC05F0E552DA
:1022E000DF2ADDD70A0EE66E05EC05F0E5520D0E8D
:1022F000E66E05EC05F0E5525B0E0301465D01E07C
:10230000E8D2030147515A0A01E1BED2020A01E1B3
:102310007DD20F0A01E150D2020A01E125D2010A61
:1023200001E1F8D1070A01E1CBD1010A01E1AFD106
:102330001F0A01E1D5D0010A01E1A6D0040A01E19A
:1023400099D00E0A6DE0030A52E0010A0DE0120A6C
:1023500001E0B5D2D950020FE96EDACFEAFF720E72
:10236000EE6E2B0EED6EB5D2010E48C3DBFF410EB3
:10237000096E010EDB50D880095419E35A0E0A6E1B
:10238000010EDB500A5C13E3010EDB501F0B03014F
:10239000156F0301166F0301978DD950020FE96E77
:1023A000DACFEAFF990EEE6E2B0EED6E1FD0400EC7
:1023B000096E010EDB50095C10E10301156B15C3BA
:1023C00016F30301979DD950020FE96EDACFEAFFA9
:1023D000B40EEE6E2B0EED6E09D0D950020FE96EE1
:1023E000DACFEAFFD10EEE6E2B0EED6E72D2030144
:1023F0009771030197A10AD0D950020FE96EDACF85
:10240000EAFFFF0EEE6E2B0EED6E09D0D950020FD3
:10241000E96EDACFEAFF1A0EEE6E2C0EED6E59D28F
:1024200003014851320A0FE0030A01E018D003010A
:102430009795D950020FE96EDACFEAFF370EEE6EAC
:102440002C0EED6E16D003019785D950020FE96E60
:10245000DACFEAFF4F0EEE6E2C0EED6E0AD0D95099
:10246000020FE96EDACFEAFF670EEE6E2C0EED6E0C
:1024700000D02FD2D950020FE96EDACFEAFF860ED4
:10248000EE6E2C0EED6E25D203014851310A10E09C
:10249000010A01E01AD003019799D950020FE96EA1
:1024A000DACFEAFFE50EEE6E2C0EED6E91DA17D064
:1024B00003019789D950020FE96EDACFEAFFFF0EC8
:1024C000EE6E2C0EED6E84DA0AD0D950020FE96E52
:1024D000DACFEAFF170EEE6E2D0EED6E00D0F9D1B9
:1024E00003014851B20A01E1C5D0920A01E1B5D019
:1024F0003F0A01E1A5D0280A01E192D0300A01E1AA
:102500008FD0310A01E17CD0300A01E179D0330A61
:1025100067E0300A65E0310A53E0300A51E0370ADB
:102520003FE0300A3DE0310A2BE0300A29E0330A6F
:1025300017E0300A15E0310A03E0300A01E09CD0D0
:1025400003011491149314951497D950020FE96E56
:10255000DACFEAFF420EEE6E2D0EED6E39DA96D02E
:1025600003011481149314951497D950020FE96E46
:10257000DACFEAFF5C0EEE6E2D0EED6E29DA86D014
:1025800003011491148314951497D950020FE96E26
:10259000DACFEAFF760EEE6E2D0EED6E19DA76D0FA
:1025A00003011481148314951497D950020FE96E16
:1025B000DACFEAFF900EEE6E2D0EED6E09DA66D0E0
:1025C00003011491149314851497D950020FE96EE6
:1025D000DACFEAFFAA0EEE6E2D0EED6EF9D956D0C7
:1025E00003011481149314851497D950020FE96ED6
:1025F000DACFEAFFC40EEE6E2D0EED6EE9D946D0AD
:1026000003011491148314851497D950020FE96EB5
:10261000DACFEAFFDE0EEE6E2D0EED6ED9D936D092
:1026200003011481148314851497D950020FE96EA5
:10263000DACFEAFFF80EEE6E2D0EED6EC9D926D078
:1026400003019799D950020FE96EDACFEAFFFF0E26
:10265000EE6E2C0EED6EBCD919D003019789D950BE
:10266000020FE96EDACFEAFFE50EEE6E2C0EED6E8C
:10267000AFD90CD0FF000AD0D950020FE96EDACFE3
:10268000EAFF120EEE6E2E0EED6E00D022D1030187
:102690009773030197A30AD0D950020FE96EDACFDE
:1026A000EAFF400EEE6E2E0EED6E09D0D950020FED
:1026B000E96EDACFEAFF580EEE6E2E0EED6E09D1FE
:1026C000010E48C3DBFF310E096E010EDB50D880CE
:1026D000095416E3380E0A6E010EDB500A5C10E353
:1026E000010EDB500F0BFF0F03011A6FD950020FC1
:1026F000E96EDACFEAFF720EEE6E2E0EED6E09D0A5
:10270000D950020FE96EDACFEAFF9A0EEE6E2E0E66
:10271000ED6EDFD003014851310A0FE0010A01E0FC
:1027200018D003019891D950020FE96EDACFEAFF71
:102730001F0EEE6E2F0EED6E16D003019881D9504C
:10274000020FE96EDACFEAFF3A0EEE6E2F0EED6E53
:102750000AD0D950020FE96EDACFEAFF540EEE6EBE
:102760002F0EED6E00D0B5D003014851310A0EE0B6
:10277000010A01E016D069D9D950020FE96EDACF0B
:10278000EAFF8A0EEE6E2F0EED6E15D04ED9D9509F
:10279000020FE96EDACFEAFFAE0EEE6E2F0EED6E8F
:1027A0000AD0D950020FE96EDACFEAFFD10EEE6EF1
:1027B0002F0EED6E00D08DD003014851340A0FE08A
:1027C000060A01E018D00301979BD950020FE96E69
:1027D000DACFEAFFC80EEE6E2E0EED6E16D00301B4
:1027E000978BD950020FE96EDACFEAFFDD0EEE6E5D
:1027F0002E0EED6E0AD0D950020FE96EDACFEAFF45
:10280000F20EEE6E2E0EED6E00D063D00301485135
:10281000340A21E0060A11E0030A01E02AD003018C
:10282000010E1B6F7FD8D950020FE96EDACFEAFF95
:10283000010EEE6E300EED6E26D00301020E1B6F00
:1028400071D8D950020FE96EDACFEAFF1C0EEE6E96
:10285000300EED6E18D00301030E1B6F63D8D950F4
:10286000020FE96EDACFEAFF370EEE6E300EED6E34
:102870000AD0D950020FE96EDACFEAFF520EEE6E9F
:10288000300EED6E00D025D04DD803012E6B2F6B8E
:10289000306B0301316B326B336B0301346B356B7F
:1028A000366B0301376B386B396BD950020FE96E09
:1028B000DACFEAFF6F0EEE6E300EED6E0AD0D95011
:1028C000020FE96EDACFEAFF980EEE6E300EED6E73
:1028D00000D0C1DCD950020FE96EDACFEAFFEE502A
:1028E000ED1016E0020EDBCFF6FFDB2A030EDBCF86
:1028F000F7FF01E3DB2A0800010EF5CFDBFFF550FF
:1029000007E0010EDBCFE6FF05EC05F0E552EAD764
:10291000040EE15C02E2E16AE552E16EE552E7CFC6
:10292000D9FF1200100EE66E070EE66EE66A48EC5E
:1029300006F0E552E552E552100EE66E070EE66E21
:10294000010EE66E48EC06F0E552E552E552100E37
:10295000E66E070EE66E020EE66E48EC06F0E552F5
:10296000E552E552100EE66E070EE66E030EE66EB9
:1029700048EC06F0E552E552E5521BC3E6FF010EB6
:10298000E66EE66A48EC06F0E552E552E5521BC3F6
:10299000E6FF010EE66EE66E48EC06F0E552E55203
:1029A000E5521BC3E6FF010EE66E020EE66E48EC32
:1029B00006F0E552E552E5521BC3E6FF010EE66E56
:1029C000030EE66E48EC06F0E552E552E5521200C1
:1029D000939E939C939A93989298929A03010301E1
:1029E0001451010B02E08A8E01D08A9E030103017B
:1029F0001451020B02E08A8C01D08A9C030103016E
:102A00001451040B02E08A8A01D08A9A8A98899824
:102A1000030103019751100B02E0898A01D0899AC2
:102A2000899000000000898012000301176B1C6B65
:102A30001D6B1E6B1F6B186B196B978FF18CF18AD6
:102A4000F292F090F288F0861200F298F096D58E0D
:102A50000301979F120003011751020A15E0010AB2
:102A600013E0030A03E0010A01E01BD0280E096EFF
:102A70001851095C08E2280E0A6E1951D8800A54D0
:102A800002E2020E176F0DD0280E096E1951095C73
:102A900007E2280E0A6E1851D8800A5401E2176B1B
:102AA00000D0280E096E1851095C03E21C691D69EB
:102AB00001D0182B280E096E1951095C03E21E691A
:102AC0001F6901D0192B120003011751010A10E0F0
:102AD000010A01E022D01A51070BF36EF80ED5144B
:102AE000F310D56ED76AD66AD58E010E176F15D042
:102AF000010E096EF250040B01E0010E095C04E1C5
:102B0000F2941C691D6904D0D6CF1CF3D7CF1DF3F6
:102B1000D76AD66A020E176F00D0186B1200030135
:102B20001751030A10E0010A01E021D01A51070BE6
:102B3000F36EF80ED514F310D56ED76AD66AD58E1B
:102B4000030E176F14D0010E096EF250040B01E052
:102B5000010E095C04E1F2941E691F6904D0D6CF0E
:102B60001EF3D7CF1FF3D76AD66A176B00D0196B45
:022B7000120051
:0E2B72005B563A204B412D3130374920313827
:102B800046323632302076332E312E3120323031FB
:102B900037303230395D0A0D005B443A2044656CB1
:102BA00074612074696D696E67206163746976650C
:102BB0005D0A0D005B443A2044656C7461207469C1
:102BC0006D696E6720696E6163746976655D0A0D73
:102BD000005B443F3A2055736520666F726D6174E7
:102BE000205B446E5D207768657265206E203D2015
:102BF00040207468726F756768205A5D0A0D005B2B
:102C0000453A204D657373616765206563686F2081
:102C10006163746976655D0A0D005B453A204D6518
:102C20007373616765206563686F20696E616374A3
:102C30006976655D0A0D005B46313A204672657122
:102C400075656E637920313020487A5D0A0D005B2E
:102C500046323A204672657175656E63792032306E
:102C600020487A5D0A0D005B463F3A204631203D00
:102C700020313020487A2C204632203D203230202E
:102C8000487A5D0A0D005B483A20442D656C7461FA
:102C900020452D63686F20462D72657175656E63E2
:102CA0007920482D656C70204C2D4544204D2D75A4
:102CB0007820522D65706F727420562D657273697D
:102CC0006F6E20572D6865656C6D6F6465205A2D99
:102CD000526573657420422D6F6F746C6F6164650B
:102CE000725D0A0D005B4C303A2054657374204CC1
:102CF000454420696E6163746976655D0A0D005B09
:102D00004C313A2054657374204C454420616374FF
:102D10006976655D0A0D005B4C3F3A204C30203DE2
:102D2000204C454420696E6163746976652C204CA3
:102D300031203D204C4544206163746976655D0A0D
:102D40000D005B4D303A20566964656F204D7578F3
:102D500020696E70757420305D0A0D005B4D313A4C
:102D600020566964656F204D757820696E707574A2
:102D700020315D0A0D005B4D323A20566964656F63
:102D8000204D757820696E70757420325D0A0D00D3
:102D90005B4D333A20566964656F204D7578206924
:102DA0006E70757420335D0A0D005B4D343A205609
:102DB0006964656F204D757820696E707574203474
:102DC0005D0A0D005B4D353A20566964656F204DF4
:102DD000757820696E70757420355D0A0D005B4D45
:102DE000363A20566964656F204D757820696E709B
:102DF000757420365D0A0D005B4D373A20566964C4
:102E0000656F204D757820696E70757420375D0A86
:102E10000D005B4D3F3A2055736520666F726D6102
:102E200074205B4D6E5D207768657265206E203D75
:102E30002030207468726F75676820375D0A0D0056
:102E40005B523A205265706F7274696E67206163DD
:102E5000746976655D0A0D005B523A205265706FA9
:102E60007274696E6720696E6163746976655D0A64
:102E70000D005B533A2050756C736520776964745C
:102E8000682074696D696E67207072657363616C28
:102E90006572207365745D0A0D005B533F3A2055DF
:102EA000736520666F726D6174205B536E5D207771
:102EB00068657265206E203D2031207468726F75E0
:102EC000676820385D0A0D005B57323A2032205780
:102ED0006865656C204D6F64655D0A0D005B573455
:102EE0003A203420576865656C204D6F64655D0A33
:102EF0000D005B573F3A205732203D203220576863
:102F000065656C204D6F64652C205734203D20345E
:102F100020576865656C204D6F64655D0A0D005B28
:102F200054303A2031306D7354696D657220646994
:102F30007361626C65645D0A0D005B54313A203147
:102F4000306D7354696D657220656E61626C656485
:102F50005D0A0D005B543F3A205430203D20446907
:102F60007361626C652031306D7354696D65722CCC
:102F7000205431203D20456E61626C652031306DFA
:102F80007354696D65725D0A0D005B55303A2050CF
:102F9000756C73652077696474682074696D696EF7
:102FA000672064697361626C65645D0A0D005B553E
:102FB000313A2050756C73652077696474682074A9
:102FC000696D696E6720656E61626C65645D0A0D8E
:102FD000005B553F3A205530203D204469736162C3
:102FE0006C652074696D696E672C205531203D2019
:102FF000456E61626C652074696D696E675D0A0D6E
:10300000005B58313A205175616420436F756E74CE
:10301000204D6F64652058315D0A0D005B58323ACF
:10302000205175616420436F756E74204D6F646527
:103030002058325D0A0D005B58343A2051756164A6
:1030400020436F756E74204D6F64652058345D0A9F
:103050000D005B583F3A2058312C2058322C205814
:103060003420616C6C6F7761626C655D0A0D005B8A
:103070005A3A205351454E2072657365745D0A0DAE
:10308000005B3F3A204E6F7420696D706C656D6512
:103090006E7465645D0A0D005B3F3A204E6F7420CC
:1030A0007265636F676E697A65645D0A0D00303121
:0F30B000323334353637383941424344454600D0
:020000040030CA
:0100010006F8
:010002001FDE
:010003000EEE
:010005008377
:010006008178
:010008000FE8
:01000900C036
:01000A000FE6
:01000B00E014
:01000C000FE4
:01000D0040B2
:00000001FF
