:020000040000FA
:04000000BCEF00F061
:0400080080EF00F095
:080028000001A9513BEC02F0BC
:1000300014D11BD14BD160D138D143D116D146D187
:100040005BD11BD14ED125D176D191D12ED139D1D1
:10010000FACF00F0FBCF01F0E9CF03F0EACF02F025
:1001100009D002C0EAFF03C0E9FF01C0FBFF00C035
:04012000FAFF1100D1
:0C0124009EAA06D09DAA04D09E9A27EC4B
:1001300004F021D09EA806D09DA804D09E981FEC64
:1001400004F019D09EA604D09E9614EC00F013D0B3
:100150009EA006D09E90D1EC01F0D3EC00F00BD025
:100160009EAC07D09E9C9D9C0001863F04D08607D4
:0801700002D000000000CDD711
:08017800CDEC01F00EEC02F0E9
:100180000001010E806F010E816F010E826F836B83
:10019000846B856B866B876B886B05D8CFEC01F021
:1001A000D1EC01F017D00001802F05D0010E806F37
:1001B000833F01D08307812F05D00A0E816F843FD2
:1001C00001D08407822F05D0140E826F853F01D0A5
:1001D00085071200000E00018725D8B406D0FAEC7E
:1001E00001F00001872F0000F5D7000E00018825DF
:1001F000D8B406D003EC02F00001882F0000EAD743
:10020000000E00018625D8B406D0F1EC01F0000103
:10021000862F0000DFD7000E00018325D8B406D05A
:10022000D6EC01F00001832F0000D4D7000E0001AE
:100230008425D8B406D0DFEC01F00001842F000043
:10024000C9D7000E00018525D8B406D0E8EC01F02E
:0A0250000001852F0000BED7BDD7C6
:06025A000001AB81AB9D29
:10026000AA51A96F0F01C58412000001AB8FAB9199
:10027000AB9DA92B9D86C58012000001ABAD05D0BA
:10028000C5AC03D0000EA96FCFD6AB9DA92BC582FC
:1002900012000001ABAD05D0C5AC03D0000EA96FB4
:1002A000C3D6AB9DA92BC58612000001ABAD05D00E
:1002B000C5AC03D0000EA96FB7D6AB9DA92BC584E2
:1002C00012009D960001AB9F0CEF02F00001A92BDC
:1002D000AB8D000EAE6FB00EAF6FAC91AC51C96E6E
:1002E00012000001A92BAB8D000EB56FB70EB66FD3
:1002F000AC81AC51C96E12000001ABAD05D0C5ACEC
:1003000003D0000EA96F90D6AB8DE9CFBCF0EACF39
:10031000BBF0AEC0EAFFAFC0E9FFEE50EACFAEF0EF
:10032000E9CFAFF0BCC0E9FFBBC0EAFFAD2F01D001
:10033000A92BC96E12000001AB9DA92BE9CFBEF01D
:10034000EACFBDF0B5C0EAFFB6C0E9FFC9CFEEFF06
:10035000EACFB5F0E9CFB6F0BEC0E9FFBDC0EAFF15
:10036000B42F02D0C58A01D0C59AC58812000001F9
:10037000AB9DB451D8A402D0A92B56D6A907C586E7
:1003800012000001010EA96F050EAA6F4DD60001E3
:0A039000060EA96F0F0EAA6F47D6E4
:06039A0000EF0CF003EF80
:1003A0000CF020EF0CF03FEF0CF01200110E1CECE3
:1003B00002F029EC0CF0120E1CEC02F01200210EDF
:1003C0001CEC02F02EEC0CF0220E1CEC02F01200E1
:1003D000310E1CEC02F033EC0CF0320E1CEC02F08F
:1003E0001200810E1CEC02F038EC0CF0820E1CECBA
:1003F00002F01200610E1CEC02F0F4EC08F0620E48
:100400001CEC02F01200710E1CEC02F06AEC09F018
:0C041000720E1CEC02F01200C7EF08F0A6
:04041C0001EE06F0F7
:10042000E9CF02F1EACF01F1FA0E0101006FEE6AA5
:10043000002FFDD7006B1200F2CF03F1F29EE9CF3F
:1004400005F1EACF04F102C1E9FF01C1EAFFEE6E56
:100450000101002BFA0E006303D001EE06F0006BE1
:10046000E9CF02F1EACF01F105C1E9FF04C1EAFFDA
:0604700003BFF28E120032
:0A0476000001BF6FBF47BF51FD2614
:10048000D8B0FE2A12000001BF6FBF47BF47BF515F
:10049000FD26D8B0FE2A12000F0E786EA50E796EDA
:1004A000690E7A6EC30E7B6EE10E7C6ED20E7D6E8F
:1004B000870E7E6E4B0E7F6EFF00786A796A7A6ACD
:0C04C0007B6A7C6A7D6A7E6A7F6A12009B
:0404CC00C7C0D1F0E4
:1004D000C6C0D0F00001CC51D103F4CFC7F0F3CFA8
:1004E000C6F0CB51D003F4CFC5F0F3CFC4F0CC515C
:1004F000D003F350C527F450C623E86AC723CB5175
:10050000D103F350C527F450C623E86AC72312006D
:100800000201006B0E6B0F6B106B116B120002017B
:10081000020E046F066F200E056F076F8F0E086FB4
:100820000091008312000201020E096F0B6F900EFF
:100830000A6F0C6FFF0E0D6F00950087120002010A
:1008400000A302D09D9802D079D8AD6E12000201AB
:10085000ABB205D0ABB409D000B50CD00ED0AB987C
:10086000AB880E3F18D00E0716D0AE500F3F13D0F6
:100870000F0711D0103F01D01007AE500D0AD8B4A9
:1008800000890D0A33D8020100A905D000990001A2
:10089000883F01D0880712009D98E9CF13F2EACF74
:1008A00012F2020100A109D0113F01D0110706C2C6
:1008B000EAFF08C2E9FFEF6E12D006C2EAFF07C2E4
:1008C000E9FF07C208F2EE6E900EE96202D002EE76
:1008D00020F0E950056301D00081E9CF07F20093D1
:1008E00013C2E9FF12C2EAFF9D881200E9CF15F298
:1008F000EACF14F2020100A509D0103F01D0100781
:100900000BC2EAFF0DC2E9FFEF6E12D00BC2EAFF85
:100910000CC2E9FF0CC20DF2EE6E000EE96202D0CD
:1009200002EE90F0E9500A6301D00085E9CF0CF2A5
:10093000009715C2E9FF14C2EAFF1200E9CF17F2CF
:10094000EACF16F2020100B319D004C2EAFF05C2D1
:10095000E9FFEECF02F2900EE96202D002EE20F043
:10096000E9CF05F2E950076302D000839D9800911A
:10097000025117C2E9FF16C2EAFF120017C2E9FFCF
:1009800016C2EAFF000C9D9AE9CF19F2EACF18F2DD
:10099000020100B719D009C2EAFF0AC2E9FFEECF8F
:1009A00001F2000EE96202D002EE90F0E9CF0AF205
:1009B000E9500C6301D000870095015119C2E9FF8D
:1009C00018C2EAFF9D8A120019C2E9FF18C2EAFFA5
:1009D0009D8A000CFE0EE3CFE9FFFF0EE3CFEAFF96
:1009E000EE50000A04E0000A4CEC04F0F9D71200C3
:0609F000FF0EE35051D799
:0A09F6000001C76BC66BC56B270E2E
:100A0000D16F100ED06FD051CB5FD151D8A0D13D56
:100A1000CC5FD8A002D0C72BF6D7D051CB27D1516D
:100A2000D8B0D13DCC27030ED16FE80ED06FD05196
:100A3000CB5FD151D8A0D13DCC5FD8A002D0C62B7E
:100A4000F6D7D051CB27D151D8B0D13DCC27C63B1A
:100A5000000ED16F640ED06FD051CB5FD151D8A0B2
:100A6000D13DCC5FD8A002D0C62BF6D7D051CB2732
:100A7000D151D8B0D13DCC270A0ED06FD051CB5F29
:100A8000D8A002D0C52BFAD7D051CB27C53BCB512C
:100A9000C527000C0001C76BC66B640ECC5FD8A0E5
:100AA00002D0C72BFBD7CC270A0ECC5FD8A002D030
:100AB000C62BFBD7CC27C63BCC51C6271200000162
:100AC000CC51300FC76FCB390F0B300FC66F2E0EC6
:100AD000C56FCB510F0B300FC46FCA390F0B300FDE
:100AE000C36FCA510F0B300FC26F000C0001CC5105
:100AF000300FC76FCB390F0B300FC66FCB510F0BB9
:060B0000300FC56F000C70
:101000001A0FF66E100EF76ED8B0F72A000EF86EB3
:10101000D8B0F72A0900F550120020202020202007
:101020002020202020202020202074696E79525416
:10103000582066726F6D2E2E2E20537963616D6F6E
:10104000726520536F6674776172652C20496E63F8
:101050002E20202020205348696767696E734074F2
:10106000696E795254582E636F6D20202020202005
:0A1070002020202020202020202036
:06107A00030110513BECE4
:0A10800002F08FD096D0A0D0A7D0C8
:02108A00000064
:10110000000E0301076F1200100E0301066F075156
:1011100000EE89F075DFEE6E06070900F5CFEEFFF1
:10112000062FFBD7072B500E076303D0000E0301D9
:10113000076F120000EE99F008C3EEFF09C3EEFF3F
:101140000AC3EEFF0BC3EEFF0CC3EEFF200EEE6EE4
:10115000560EEE6E200EEE6E2B0EEE6E0DC3EEFFF3
:101160000EC3EEFF0FC3EEFF200EEE6E640EEE6EAA
:0A117000670EEE6E430EEE6E1200E5
:06117A00050E0F01C86E16
:10118000280E0F01C66E800E0F01C76E12000301FC
:10119000102B73D79A0E0001AC6F000E0301106F75
:1011A0006CD7010E0001B06F010EAD6FB46FC7EFC9
:1011B00001F00001B751400BD8A403D00301100780
:1011C00002D00301102B59D7000E0001B06F010EA1
:1011D000AD6FB46FC7EF01F0B7C011F30001873FE7
:1011E000F3EF08F0870712007F0E030111150001CD
:1011F000CC6F4AEC05F0C7C0CCF0C6C0CBF076ECA3
:1012000005F003EE0DF0C7C0EEFFC6C0EEFFC5C08F
:04121000EFFF1200DA
:0C1214009280010EC26E0E0EC16EBA0E6A
:10122000C06E12009D8CC2821200C4500301026F76
:10123000C350036F02C3C7F003C3C6F0040E00011E
:10124000CC6FE30ECB6F66EC02F0C6C004F3C5C0F2
:1012500005F304C3CCF005C3CBF0FBEC04F0C7C02E
:10126000CCF0C6C0CBF0C5C0CAF05FEC05F003EE11
:1012700008F0C6C0EEFFC5C0EEFFC4C0EEFFC3C09D
:08128000EEFFC2C0EEFF1200F8
:08128800948E948C480EB86EA0
:10129000000EB06E080EAF6E240EAC6E900EAB6EEC
:1012A00000EC04F007EC04F013EC04F09D8A12004B
:1012B000100E0301136F00EE99F0EE504CEC04F0A9
:1012C0000301132FFAD70D0E4CEC04F00A0E4CEC70
:1012D00004F01200C3EC04F00301126F4CEC04F0B4
:0A12E000030112510D0AF6E112009D
:10180000000ED36E1200000E806E3F0E926E000E20
:10181000816EF00E936E000E826EFF0E946E000EBF
:101820009D6E000E9E6E1F0ED06EC00EF26E0AEC04
:1018300009F0BDEC08F080EC08F044EC09F012006F
:10184000300ECD6E2C0ECE6ECF0ECF6E9D80CD8025
:101850001200010E811A12EC09F01200020E811A18
:1018600084EC08F01200040E811ACAEC08F0120091
:1018700015EC09F09AEC08F058EC09F0120012008F
:041880001200120040
:020000040030CA
:0100010007F7
:010002001FDE
:010003000EEE
:010005008377
:010006008178
:010008000FE8
:01000900C036
:01000A000FE6
:01000B00E014
:01000C000FE4
:01000D0040B2
:00000001FF
