:020000040000FA
:0600000056EF08F01200AB
:0600080080EF00F0120081
:080028000001A951C9EC02F02E
:10003000A2D1A9D1D9D1EED1C6D1D1D1A4D1D4D117
:10004000E9D1A9D1DCD1B3D104D21FD2BCD1C7D15F
:100050008A0EF66E100EF76E000EF86E00010900A3
:10006000F550D86F0900F550D96F03E1D86701D07A
:100070003DD00900F550D36F0900F550D46F090049
:10008000F550D56F09000900F550E96E0900F550EB
:10009000EA6E090009000900F550D66F0900F55015
:1000A000D76F09000900F6CFDAF0F7CFDBF0F8CF11
:1000B000DCF0D3C0F6FFD4C0F7FFD5C0F8FF0001D5
:1000C000D65302E1D75307E00900F550EE6ED6078C
:1000D000F8E2D707F9D7DAC0F6FFDBC0F7FFDCC0DC
:0E00E000F8FF0001D807000ED95BBFD7120051
:0200EE001200FE
:10010000006ED8CF01F0E0CF02F0FACF03F0FBCFC2
:1001100004F0E9CF06F0EACF05F09E50200B07E08F
:100120009D50200B04E09E9A27EC04F025D09E50B1
:10013000100B07E09D50100B04E09E981FEC04F09C
:100140001BD09EA604D09E9614EC00F015D09EA065
:1001500006D09E905FEC02F0A3EC01F00DD09EACB7
:1001600008D09E9C9D9C0001862B02E10001860721
:1001700003D000000000000005C0EAFF06C0E9FF50
:1001800004C0FBFF03C0FAFF02C0E0FF01C0D8FFBC
:08019000003A003811001200D2
:080198005BEC02F0EBEC02F05D
:1001A0009CEC02F00001010E806F0001010E816FD6
:1001B0000001010E826F0001836B0001846B00015E
:1001C000856B0001866B0001876B0001886BBBD8D3
:1001D0005DEC02F05FEC02F061EC02F0000E000159
:1001E000E76E8719E8AE02D0873503D0E750D88094
:1001F000875512E288EC02F000018707000E00012B
:10020000E76E8719E8AE02D0873503D0E750D88073
:10021000875501E2000095D0000E0001E76E8819B5
:10022000E8AE02D0883503D0E750D880885512E276
:1002300091EC02F000018807000E0001E76E8819BA
:10024000E8AE02D0883503D0E750D880885501E267
:10025000000077D0000E0001E76E8619E8AE02D0EC
:10026000863503D0E750D880865512E27FEC02F045
:1002700000018607000E0001E76E8619E8AE02D085
:10028000863503D0E750D880865501E2000059D06A
:10029000000E0001E76E8319E8AE02D0833503D06B
:1002A000E750D880835512E264EC02F00001830726
:1002B000000E0001E76E8319E8AE02D0833503D04B
:1002C000E750D880835501E200003BD0000E0001CA
:1002D000E76E8419E8AE02D0843503D0E750D880A9
:1002E000845512E26DEC02F000018407000E00015B
:1002F000E76E8419E8AE02D0843503D0E750D88089
:10030000845501E200001DD0000E0001E76E851942
:10031000E8AE02D0853503D0E750D880855511E28C
:1003200076EC02F000018507000E0001E76E8519EA
:10033000E8AE02D0853503D0E750D880855501E27C
:1003400000004AD712000001800705E1010E806F0E
:10035000832B01E18307810705E10A0E816F842B5E
:1003600001E18407820705E1320E826F852B01E1EE
:06037000850700D0120019
:0A0376000001AB81AB9DAA51A96FF5
:100380000F01C58412000001AB8FAB91AB9DA92B6F
:100390009D86C58012000001ABAD05D0C5AC03D071
:1003A000000EA96F41D6AB9DA92BC582120000019A
:1003B000ABAD05D0C5AC03D0000EA96F35D6AB9D53
:1003C000A92BC58612000001ABAD05D0C5AC03D08A
:1003D000000EA96F29D6AB9DA92BC58412009D964E
:1003E0000001AB9F9AEF02F00001A92BAB8D000E2C
:1003F000AE6FB00EAF6FAC91AC51C96E1200000180
:10040000A92BAB8D000EB56FB70EB66FAC81AC519A
:10041000C96E12000001ABAD05D0C5AC03D0000E13
:10042000A96F02D6AB8DE9CFBCF0EACFBBF0AEC06E
:10043000EAFFAFC0E9FFEE50EACFAEF0E9CFAFF090
:10044000BCC0E9FFBBC0EAFFAD2F01D0A92BC96E2C
:1004500012000001AB9DA92BE9CFBEF0EACFBDF0A1
:10046000B5C0EAFFB6C0E9FFC9CFEEFFEACFB5F0ED
:10047000E9CFB6F0BEC0E9FFBDC0EAFFB42F02D09D
:10048000C58A01D0C59AC58812000001AB9DB45140
:10049000D8A402D0A92BC8D5A907C586120000018F
:1004A000010EA96F050EAA6FBFD50001060EA96F38
:0604B0000F0EAA6FB9D582
:0A04B60000EF0CF003EF0CF019EF5B
:1004C0000CF047EF0CF01200110EAAEC02F022EC37
:1004D0000CF0120EAAEC02F01200210EAAEC02F0AF
:1004E0002BEC0CF0220EAAEC02F01200310EAAEC5A
:1004F00002F036EC0CF0320EAAEC02F01200810E83
:10050000AAEC02F041EC0CF0820EAAEC02F0120010
:10051000610EAAEC02F0F4EC08F0620EAAEC02F014
:100520001200710EAAEC02F083EC09F0720EAAEC34
:0805300002F01200C7EF08F011
:0805380001EE06F0E9CF02F12B
:10054000EACF01F1FA0E0101006FEE6A002FFDD72C
:10055000006B1200F2CF03F1F29EE9CF05F1EACF72
:1005600004F102C1E9FF01C1EAFFEE6E0101002BB7
:10057000FA0E006303D001EE06F0006BE9CF02F142
:10058000EACF01F105C1E9FF04C1EAFF03BFF28E22
:02059000120057
:0E0592000001BF6FBF47BF51FD26D8B0FE2A43
:1005A00012000001BF6FBF47BF47BF51FD26D8B043
:1005B000FE2A12000F0E786EA50E796E690E7A6E05
:1005C000C30E7B6EE10E7C6ED20E7D6E870E7E6E4C
:1005D0004B0E7F6EFF00786A796A7A6A7B6A7C6A62
:0805E0007D6A7E6A7F6A120049
:0805E800C7C0D1F0C6C0D0F07D
:1005F0000001CC51D103F4CFC7F0F3CFC6F0CB51FB
:10060000D003F4CFC5F0F3CFC4F0CC51D003F350F6
:10061000C527F450C623E86AC723CB51D103F35052
:0C062000C527F450C623E86AC723120067
:100800000201006B0E6B0F6B106B116B120002017B
:10081000020E046F066F200E056F076F8F0E086FB4
:100820000091008312000201020E096F0B6F900EFF
:100830000A6F0C6FFF0E0D6F00950087120002010A
:1008400000A302D09D9802D079D8AD6E12000201AB
:10085000ABB205D0ABB409D000B50CD00ED0AB987C
:10086000AB880E3F18D00E0716D0AE500F3F13D0F6
:100870000F0711D0103F01D01007AE500D0AD8B4A9
:1008800000890D0A33D8020100A905D000990001A2
:10089000883F01D0880712009D98E9CF13F2EACF74
:1008A00012F2020100A109D0113F01D0110706C2C6
:1008B000EAFF08C2E9FFEF6E12D006C2EAFF07C2E4
:1008C000E9FF07C208F2EE6E900EE96202D002EE76
:1008D00020F0E950056301D00081E9CF07F20093D1
:1008E00013C2E9FF12C2EAFF9D881200E9CF15F298
:1008F000EACF14F2020100A509D0103F01D0100781
:100900000BC2EAFF0DC2E9FFEF6E12D00BC2EAFF85
:100910000CC2E9FF0CC20DF2EE6E000EE96202D0CD
:1009200002EE90F0E9500A6301D00085E9CF0CF2A5
:10093000009715C2E9FF14C2EAFF1200E9CF17F2CF
:10094000EACF16F2020100B319D004C2EAFF05C2D1
:10095000E9FFEECF02F2900EE96202D002EE20F043
:10096000E9CF05F2E950076302D000839D9800911A
:10097000025117C2E9FF16C2EAFF120017C2E9FFCF
:1009800016C2EAFF000C9D9AE9CF19F2EACF18F2DD
:10099000020100B719D009C2EAFF0AC2E9FFEECF8F
:1009A00001F2000EE96202D002EE90F0E9CF0AF205
:1009B000E9500C6301D000870095015119C2E9FF8D
:1009C00018C2EAFF9D8A120019C2E9FF18C2EAFFA5
:1009D0009D8A000CFE0EE3CFE9FFFF0EE3CFEAFF96
:1009E000EE50000A04E0000A4CEC04F0F9D71200C3
:0609F000FF0EE35051D799
:0A09F6000001C76BC66BC56B270E2E
:100A0000D16F100ED06FD051CB5FD151D8A0D13D56
:100A1000CC5FD8A002D0C72BF6D7D051CB27D1516D
:100A2000D8B0D13DCC27030ED16FE80ED06FD05196
:100A3000CB5FD151D8A0D13DCC5FD8A002D0C62B7E
:100A4000F6D7D051CB27D151D8B0D13DCC27C63B1A
:100A5000000ED16F640ED06FD051CB5FD151D8A0B2
:100A6000D13DCC5FD8A002D0C62BF6D7D051CB2732
:100A7000D151D8B0D13DCC270A0ED06FD051CB5F29
:100A8000D8A002D0C52BFAD7D051CB27C53BCB512C
:100A9000C527000C0001C76BC66B640ECC5FD8A0E5
:100AA00002D0C72BFBD7CC270A0ECC5FD8A002D030
:100AB000C62BFBD7CC27C63BCC51C6271200000162
:100AC000CC51300FC76FCB390F0B300FC66F2E0EC6
:100AD000C56FCB510F0B300FC46FCA390F0B300FDE
:100AE000C36FCA510F0B300FC26F000C0001CC5105
:100AF000300FC76FCB390F0B300FC66FCB510F0BB9
:060B0000300FC56F000C70
:101000001A0FF66E100EF76ED8B0F72A000EF86EB3
:10101000D8B0F72A0900F550120020202020202007
:101020002020202020202020202074696E79525416
:10103000582066726F6D2E2E2E20537963616D6F6E
:10104000726520536F6674776172652C20496E63F8
:101050002E20202020205348696767696E734074F2
:10106000696E795254582E636F6D20202020202005
:0A1070002020202020202020202036
:06107A0003011051C9EC56
:0A10800002F08FD096D0A0D0A7D0C8
:02108A00000064
:04108C00800EF36E71
:1010900000EE00F00F0E01D81200EA6002D0EE6AF6
:0C10A000FCD7F350E9601200EE6AFCD7A8
:0410AC0014EE00F04E
:1010B00024EE00F0F86A089C28EC00F077EC00F0D1
:0810C000CCEC00F0FBD712009C
:10110000000E0301076F1200100E0301066F075156
:1011100000EE89F075DFEE6E06070900F5CFEEFFF1
:10112000062FFBD7072B500E076303D0000E0301D9
:10113000076F120000EE99F008C3EEFF09C3EEFF3F
:101140000AC3EEFF0BC3EEFF0CC3EEFF200EEE6EE4
:10115000560EEE6E200EEE6E2B0EEE6E0DC3EEFFF3
:101160000EC3EEFF0FC3EEFF200EEE6E640EEE6EAA
:0A117000670EEE6E430EEE6E1200E5
:06117A00050E0F01C86E16
:10118000280E0F01C66E800E0F01C76E12000301FC
:10119000102B73D79A0E0001AC6F000E0301106F75
:1011A0006CD7010E0001B06F010EAD6FB46F55EF3B
:1011B00002F00001B751400BD8A403D0030110077F
:1011C00002D00301102B59D7000E0001B06F010EA1
:1011D000AD6FB46F55EF02F0B7C011F30001873F58
:1011E000F3EF08F0870712007F0E030111150001CD
:1011F000CC6F4AEC05F0C7C0CCF0C6C0CBF076ECA3
:1012000005F003EE0DF0C7C0EEFFC6C0EEFFC5C08F
:04121000EFFF1200DA
:0C1214009280010EC26E0E0EC16EBA0E6A
:10122000C06E000E0301016F1200C30EC21603014F
:10123000014500440044C2269D8CC2821200FF0E6C
:10124000E3CF01F33C0E03010117120001C300F0CC
:101250001200C4CFF4FFC3CFF3FF1200C450030148
:10126000026FC350036F02C3C7F003C3C6F0040E7E
:101270000001CC6FE30ECB6FF4EC02F0C6C004F3B8
:10128000C5C005F304C3CCF005C3CBF0FBEC04F000
:10129000C7C0CCF0C6C0CBF0C5C0CAF05FEC05F04B
:1012A00003EE08F0C6C0EEFFC5C0EEFFC4C0EEFFFF
:0A12B000C3C0EEFFC2C0EEFF120043
:0612BA00948E948C480E96
:1012C000B86E000EB06E080EAF6E240EAC6E900EAF
:1012D000AB6E00EC04F007EC04F013EC04F09D8A14
:1012E0001200100E0301136F00EE99F0EE504CEC5B
:1012F00004F00301132FFAD70D0E4CEC04F00A0E84
:101300004CEC04F01200C3EC04F00301126F4CEC3F
:0C13100004F0030112510D0AF6E1120076
:10180000660ED36E1200806A3F0E926E816AF00EF1
:10181000936E826A94689D6A9E6A1F0ED06EC00E97
:10182000F26E0AEC09F0BDEC08F080EC08F05DEF18
:1018300009F0300ECD6E2C0ECE6ECF0ECF6E9D8089
:10184000CD8012008A50010B010AE8B08A80E8A01E
:101850008A9015EF09F08A50020B01E0010E010A8F
:10186000E8B08A82E8A08A9284EF08F08A50040BDC
:1018700001E0010E010AE8B08A84E8A08A94CAEF68
:1018800008F02EEC09F09AEC08F071EF09F0120064
:041890001200120030
:020000040030CA
:0100010008F6
:010002001FDE
:010003000EEE
:010005008377
:010006008178
:010008000FE8
:01000900C036
:01000A000FE6
:01000B00E014
:01000C000FE4
:01000D0040B2
:00000001FF
