:020000040000FA
:04000000BCEF00F061
:0400080080EF00F095
:080028000001AF51E0EC02F011
:10003000B9D1C0D1F0D105D2DDD1E8D1BBD1EBD15E
:1000400000D2C0D1F3D1CAD11BD236D2D3D1DED1A6
:10010000FACF00F0FBCF01F0E9CF03F0EACF02F025
:1001100009D002C0EAFF03C0E9FF01C0FBFF00C035
:04012000FAFF1100D1
:0C0124009EAA06D09DAA04D09E9A27EC4B
:1001300004F021D09EA806D09DA804D09E981FEC64
:1001400004F019D09EA604D09E9614EC00F013D0B3
:100150009EA006D09E9076EC02F0D3EC00F00BD07F
:100160009EAC07D09E9C9D9C0001863F04D08607D4
:0801700002D000000000CDD711
:0801780072EC02F0B3EC02F09E
:100180000001010E806F010E816F010E826F836B83
:10019000846B856B866B876B886B05D874EC02F07B
:1001A00076EC02F017D00001802F05D0010E806F91
:1001B000833F01D08307812F05D00A0E816F843FD2
:1001C00001D08407822F05D0140E826F853F01D0A5
:1001D00085071200000E00018725D8B406D09FECD9
:1001E00002F00001872F0000F5D7000E00018825DE
:1001F000D8B406D0A8EC02F00001882F0000EAD79E
:10020000000E00018625D8B406D096EC02F000015D
:10021000862F0000DFD7000E00018325D8B406D05A
:100220007BEC02F00001832F0000D4D7000E000108
:100230008425D8B406D084EC02F00001842F00009D
:10024000C9D7000E00018525D8B406D08DEC02F088
:0A0250000001852F0000BED7BDD7C6
:06025A000F0E95128398BF
:10026000838A838C0000000083500F0B0001A96F6C
:10027000A93B839C00000000838C00000000835099
:100280000F0B0001A927839C0001A9BFE6D712002C
:10029000E4DF0001AA3B04D80001AA3B01D8120008
:1002A0000F0EFF0A95160001AEAF02D0838801D071
:1002B0008398839A838C000000000F0EFF0A831638
:1002C00000010F0EAA15831200000000839C12008B
:1002D0000001AD6FAD2FFED712000001AC6FAD6B0A
:1002E000AD2FFED7AC2FFCD712008398839A839C46
:1002F0009598959A959C839E959E838E0001AE9FBE
:10030000140EEBDF030E0001AA6FCADF060EE5DF55
:10031000030E0001AA6FC4DF200EDADF030E000116
:10032000AA6FBEDF200ED4DF98DF020E0001AA6F95
:10033000B7DF280E0001AA6FABDF0C0E0001AA6F19
:10034000A7DF010E0001AA6FA3DF060E0001AA6F4E
:100350009FDF800E0001AA6F9BDF12000001AE9F9D
:10036000800EAA6F95DF100E0001AB6FAE8F00EE0E
:1003700089F0EECFAAF08CDF0001AB2FFAD7120084
:100380000001AE9FC00EAA6F83DF100E0001AB6F9D
:10039000AE8F00EE99F0EECFAAF07ADF0001AB2F1E
:0403A000FAD7120076
:0C03A4000001B181B19DB051AF6F0F019D
:1003B000C58412000001B18FB191B19DAF2B9D8614
:1003C000C58012000001B1AD05D0C5AC03D0000E50
:1003D000AF6F2AD6B19DAF2BC58212000001B1AD1F
:1003E00005D0C5AC03D0000EAF6F1ED6B19DAF2BAC
:1003F000C58612000001B1AD05D0C5AC03D0000E1A
:10040000AF6F12D6B19DAF2BC58412009D9600012F
:10041000B19FB1EF02F00001AF2BB18D000EB46FB0
:10042000B60EB56FB291B251C96E12000001AF2B7A
:10043000B18D000EBB6FBD0EBC6FB281B251C96EE3
:1004400012000001B1AD05D0C5AC03D0000EAF6FF6
:10045000EBD5B18DE9CFC2F0EACFC1F0B4C0EAFF6D
:10046000B5C0E9FFEE50EACFB4F0E9CFB5F0C2C0B5
:10047000E9FFC1C0EAFFB32F01D0AF2BC96E120054
:100480000001B19DAF2BE9CFC4F0EACFC3F0BBC0F0
:10049000EAFFBCC0E9FFC9CFEEFFEACFBBF0E9CF6E
:1004A000BCF0C4C0E9FFC3C0EAFFBA2F02D0C58ABE
:1004B00001D0C59AC58812000001B19DBA51D8A4D7
:1004C00002D0AF2BB1D5AF07C58612000001010ED7
:1004D000AF6F050EB06FA8D50001060EAF6F0F0EFF
:0404E000B06FA2D582
:0C04E40000EF0CF003EF0CF02AEF0CF01E
:1004F0004DEF0CF01200110EC1EC02F033EC0CF0D9
:10050000120EC1EC02F01200210EC1EC02F038EC28
:100510000CF0220EC1EC02F01200310EC1EC02F020
:100520003FEC0CF0320EC1EC02F01200810EC1EC77
:1005300002F044EC0CF0820EC1EC02F01200610EED
:10054000C1EC02F0F4EC08F0620EC1EC02F0120013
:10055000710EC1EC02F069EC09F0720EC1EC02F010
:060560001200C7EF08F0D5
:0A05660001EE06F0E9CF02F1EACF42
:1005700001F1FA0E0101006FEE6A002FFDD7006B4A
:100580001200F2CF03F1F29EE9CF05F1EACF04F1B8
:1005900002C1E9FF01C1EAFFEE6E0101002BFA0E74
:1005A000006303D001EE06F0006BE9CF02F1EACF61
:1005B00001F105C1E9FF04C1EAFF03BFF28E120099
:1005C0000001C56FC547C551FD26D8B0FE2A1200EF
:1005D0000001C56FC547C547C551FD26D8B0FE2AE5
:1005E00012000F0E786EA50E796E690E7A6EC30E2C
:1005F0007B6EE10E7C6ED20E7D6E870E7E6E4B0E94
:100600007F6EFF00786A796A7A6A7B6A7C6A7D6AA3
:060610007E6A7F6A120001
:0A061600CDC0D7F0CCC0D6F0000133
:10062000D251D703F4CFCDF0F3CFCCF0D151D603D4
:10063000F4CFCBF0F3CFCAF0D251D603F350CB278F
:10064000F450CC23E86ACD23D151D703F350CB2704
:0A065000F450CC23E86ACD23120019
:100800000201006B0E6B0F6B106B116B120002017B
:10081000020E046F066F200E056F076F8F0E086FB4
:100820000091008312000201020E096F0B6F900EFF
:100830000A6F0C6FFF0E0D6F00950087120002010A
:1008400000A302D09D9802D079D8AD6E12000201AB
:10085000ABB205D0ABB409D000B50CD00ED0AB987C
:10086000AB880E3F18D00E0716D0AE500F3F13D0F6
:100870000F0711D0103F01D01007AE500D0AD8B4A9
:1008800000890D0A33D8020100A905D000990001A2
:10089000883F01D0880712009D98E9CF13F2EACF74
:1008A00012F2020100A109D0113F01D0110706C2C6
:1008B000EAFF08C2E9FFEF6E12D006C2EAFF07C2E4
:1008C000E9FF07C208F2EE6E900EE96202D002EE76
:1008D00020F0E950056301D00081E9CF07F20093D1
:1008E00013C2E9FF12C2EAFF9D881200E9CF15F298
:1008F000EACF14F2020100A509D0103F01D0100781
:100900000BC2EAFF0DC2E9FFEF6E12D00BC2EAFF85
:100910000CC2E9FF0CC20DF2EE6E000EE96202D0CD
:1009200002EE90F0E9500A6301D00085E9CF0CF2A5
:10093000009715C2E9FF14C2EAFF1200E9CF17F2CF
:10094000EACF16F2020100B319D004C2EAFF05C2D1
:10095000E9FFEECF02F2900EE96202D002EE20F043
:10096000E9CF05F2E950076302D000839D9800911A
:10097000025117C2E9FF16C2EAFF120017C2E9FFCF
:1009800016C2EAFF000C9D9AE9CF19F2EACF18F2DD
:10099000020100B719D009C2EAFF0AC2E9FFEECF8F
:1009A00001F2000EE96202D002EE90F0E9CF0AF205
:1009B000E9500C6301D000870095015119C2E9FF8D
:1009C00018C2EAFF9D8A120019C2E9FF18C2EAFFA5
:1009D0009D8A000CFE0EE3CFE9FFFF0EE3CFEAFF96
:1009E000EE50000A04E0000A4CEC04F0F9D71200C3
:0609F000FF0EE35051D799
:0A09F6000001CD6BCC6BCB6B270E1C
:100A0000D76F100ED66FD651D15FD751D8A0D73D32
:100A1000D25FD8A002D0CD2BF6D7D651D127D7514F
:100A2000D8B0D73DD227030ED76FE80ED66FD65178
:100A3000D15FD751D8A0D73DD25FD8A002D0CC2B60
:100A4000F6D7D651D127D751D8B0D73DD227CC3BF6
:100A5000000ED76F640ED66FD651D15FD751D8A094
:100A6000D73DD25FD8A002D0CC2BF6D7D651D12714
:100A7000D751D8B0D73DD2270A0ED66FD651D15F05
:100A8000D8A002D0CB2BFAD7D651D127CB3BD1510E
:100A9000CB27000C0001CD6BCC6B640ED25FD8A0CD
:100AA00002D0CD2BFBD7D2270A0ED25FD8A002D01E
:100AB000CC2BFBD7D227CC3BD251CC271200000144
:100AC000D251300FCD6FD1390F0B300FCC6F2E0EAE
:100AD000CB6FD1510F0B300FCA6FD0390F0B300FC6
:100AE000C96FD0510F0B300FC86F000C0001D251ED
:100AF000300FCD6FD1390F0B300FCC6FD1510F0BA1
:060B0000300FCB6F000C6A
:101000001A0FF66E100EF76ED8B0F72A000EF86EB3
:10101000D8B0F72A0900F550120020202020202007
:101020002020202020202020202074696E79525416
:10103000582066726F6D2E2E2E20537963616D6F6E
:10104000726520536F6674776172652C20496E63F8
:101050002E20202020205348696767696E734074F2
:10106000696E795254582E636F6D20202020202005
:0A1070002020202020202020202036
:06107A0003011051E0EC3F
:0A10800002F08FD096D0A0D0A7D0C8
:02108A00000064
:10110000000E0301076F1200100E0301066F075156
:1011100000EE89F075DFEE6E06070900F5CFEEFFF1
:10112000062FFBD7072B500E076303D0000E0301D9
:10113000076F120000EE99F008C3EEFF09C3EEFF3F
:101140000AC3EEFF0BC3EEFF0CC3EEFF200EEE6EE4
:10115000560EEE6E200EEE6E2B0EEE6E0DC3EEFFF3
:101160000EC3EEFF0FC3EEFF200EEE6E640EEE6EAA
:0A117000670EEE6E430EEE6E1200E5
:06117A00050E0F01C86E16
:10118000280E0F01C66E800E0F01C76E12000301FC
:10119000102B73D79A0E0001B26F000E0301106F6F
:1011A0006CD7010E0001B66F010EB36FBA6F6CEF12
:1011B00002F00001BD51400BD8A403D00301100779
:1011C00002D00301102B59D7000E0001B66F010E9B
:1011D000B36FBA6F6CEF02F0BDC011F30001873F2F
:1011E000F3EF08F0870712007F0E030111150001CD
:1011F000D26F4AEC05F0CDC0D2F0CCC0D1F076EC85
:1012000005F003EE0DF0CDC0EEFFCCC0EEFFCBC07D
:04121000EFFF1200DA
:0C1214009280410EC26E8E0EC16E120060
:10122000060E0301006F002FFED79D8CC2841200B2
:10123000C4500301026FC350036F02C3CDF003C358
:10124000CCF0040E0001D26FE30ED16F0BEC03F073
:10125000CCC004F3CBC005F304C3D2F005C3D1F076
:10126000FBEC04F0CDC0D2F0CCC0D1F0CBC0D0F0BC
:101270005FEC05F003EE08F0CCC0EEFFCBC0EEFF54
:0E128000CAC0EEFFC9C0EEFFC8C0EEFF1200EC
:02128E00948E3C
:10129000948C0C0EAF6E240EAC6E900EAB6E00EC08
:1012A00004F007EC04F013EC04F09D8A1200100E19
:1012B0000301136F00EE99F0EE504CEC04F00301C3
:1012C000132FFAD70D0E4CEC04F00A0E4CEC04F080
:1012D0001200C3EC04F00301126F4CEC04F00301A4
:0812E00012510D0AF6E11200A3
:10180000660ED36E1200000E806E3F0E926E000EBA
:10181000816EF00E936E000E826EFF0E946E000EBF
:10182000836EF80E956E000E846E070E966E000E97
:101830009D6E000E9E6E1F0ED06EC00EF26E0AECF4
:1018400009F075EC01F0BDEC08F080EC08F047EC15
:1018500009F01200300ECD6E2C0ECE6ECF0ECF6E74
:101860009D80CD801200010E811A10EC09F012004B
:10187000020E811A84EC08F0AEEC01F01200040EA6
:10188000811ACAEC08F0120018EC09F09AEC08F082
:10189000C0EC01F057EC09F0120012001200120027
:020000040030CA
:0100010027D7
:010002000FEE
:010003000EEE
:0100050001F9
:010006008178
:010008000FE8
:01000900C036
:01000A000FE6
:01000B00E014
:01000C000FE4
:01000D0040B2
:00000001FF
