:020000040000FA
:10FA000012D0000EF26E300ECD6E2C0ECE6ECF0EDA
:10FA1000CF6E9D909E90CD809EA0FED7CD909E9063
:10FA200082BEFEEF7CF020EE00F0700ED3129B8CB5
:10FA300082AEFED7900EAB6E260EAC6EB886020E6E
:10FA4000D56EAB98AE50AE50D76AD66AF2944ED807
:10FA5000D58E4CD8D59EF2B4F7D7D6CFAFFFD7CF3F
:10FA6000B0FFAB8823D90F0AECE10F0E1AD900EED4
:10FA700004F01CD90F0AF9E00250040A07E0025012
:10FA8000050A01E113D902C0ECFFF3D710EE05F02F
:10FA9000006A016AEDCFF4FFE65030D8E250EA6226
:10FAA000FBD7E150E962F8D70150F462CAD70050A1
:10FAB000EF62C7D7006A016A0650F66EA96E07505A
:10FAC000F76EAA6E08C0F8FF00EE0BF00A0E056094
:10FAD000B8D7F9500544F92627D02FD039D04DD0CA
:10FAE00076D0A0D0ADD0BCD09CD7FF000400F2B43B
:10FAF000120082BEFCD782AEFED71200011800C0F1
:10FB000001F0006EE83A0F0B001A0038F00B011AF2
:10FB10000038E844011AE00B011A001A1200000331
:10FB20000108FF8400FA00001E0EF66EFB0EF76E51
:10FB3000000EF86E0A0E0A6E0B6A0900F550A5D881
:10FB4000DDDF0A06000E0B5A0A500B10F6E196D0C4
:10FB50000900F550D3DFF6503F0BFAE1005045ECB9
:10FB60007EF0015045EC7EF00A06000E0B5A0A505A
:10FB70000B10EEE187D0FF00FF00C00EF616000E5E
:10FB8000F65C000EF758010EF85802E6A66A15D08A
:10FB9000000EF65CFA0EF758000EF8580BE6000E51
:10FBA000F65CFD0EF758000EF85804E7A66A05D07B
:10FBB000FF00FF00940EA66E85D8400EF65EE86A40
:10FBC000F75AF85A0A2ED9D755D0FF00FF00C00EB9
:10FBD000F616000EF65C000EF758010EF85802E615
:10FBE000A66A14D0000EF65CFA0EF758000EF8580C
:10FBF0000BE6000EF65CFD0EF758000EF85804E711
:10FC0000A66A04D0FF00FF00840EA66EEECFF5FFBB
:10FC10000D00F6503F0BFAE10A0054D809000A2EF5
:10FC2000D6D728D0A66AA680A850A94AAA2A2DD835
:10FC300065DF0A06000E0B5A0A500B10F4E11ED0C5
:10FC4000040EA66EECCFA8FF3DD8A6B2FED7A94AF7
:10FC5000AA2A0A06000E0B5A0A500B10F3E10AD02A
:10FC6000C40EA66E0800EE50F5622AD80B000A2ECC
:10FC7000FAD700D0A66A055008D840DF005005D852
:10FC8000015003D8040E0DD8EDD6036E0F0A06E01E
:10FC90000350040A03E00350050A02E1050E01D8EF
:10FCA000035004009EA8FED7AD6E1200ABB2FF0059
:10FCB00004009EAAFDD7AE50026E1200FF00FF00A6
:10FCC000F56E0C000400550EA76EAA0EA76EA68254
:04FCD000000012001E
:02FCD40000002E
:020000040030CA
:0100010006F8
:010002001FDE
:010003000EEE
:010005008377
:010006008178
:010008000FE8
:01000900C036
:01000A000FE6
:01000B00E014
:01000C000FE4
:01000D0040B2
:00000001FF
