:0400000080314228E1
:100008007E1480312000911E12282100911E122892
:10001800200091128431DF24803140282000111EF5
:100028001E282100111E1E28200011128531372597
:10003800803140282000911D232891114028111F4C
:100048002C28111321001113F60F4028F60340281D
:100058000B1D33280B118531722580314028111C66
:100068003D2811108031DA2080318031C420803160
:1000780040280000000000007E100900803144285C
:100088001030840023308500E030FE00FF01853108
:10009800662580313630F601F701F801F901840050
:1000A800003085001530FE00FF018531662580315E
:1000B800A0308400003085005030FE000030FF0181
:1000C8008531662580317E1020006A28DC20803149
:1000D8002000CB01CB0ACC01CC0ACD01CD0AC2014C
:1000E800C301C401F601C501C601C4208031DD2069
:1000F8008031DA208031A728E2208031C503450805
:100108000319A7280000A728E3208031C603460862
:100118000319A7280000A728E1208031F6037608F4
:100128000319A7280000A728DE2080312000C20379
:1001380042080319A7280000A728DF208031C3033D
:100148004308031D0000DB20803120004508031D03
:1001580080284608031D88287608031D9028420831
:10016800031D98284308031DA12844080319A7283C
:10017800E0208031C40344080319A7280000A728F9
:10018800CB0BCB28CB01CB0AC20FCB28C203CC0B9D
:10019800D2280A30CC00C30FD228C303CD0B0800E5
:1001A8006430CD00C40F0800C4030800E428EF2819
:1001B800F028F42857295F296029452A08007A2B56
:1001C80030309800E0309600B130970021001114CB
:1001D8002000181408000800703021009900080059
:1001E8008C018D01F53021008C00FF308D0023003B
:1001F8008C0180308D0022009D0001309E0021007E
:10020800910120009101C0308B00172180311D2100
:100218008031202180317910F9141A1B1A1C1129F8
:10022800D1238031F729193021009D00A0309E008C
:1002380008002000CA010800443023009B009C01EC
:1002480048309F0024309E0090309D00322180313C
:1002580039218031482121009116080077122000A9
:10026800C801C701F801C90108002330BD001030DA
:10027800BC002330C1001030C0002330BF007F30E5
:10028800BE007710F71408002330B7008030B6009E
:100298002330BB008030BA002330B900EF30B800FB
:1002A8007711F7150800083022008C065B29210019
:1002B80011179D1408000800F91C0800A201283035
:1002C8002202031808002108031908002208A03E8A
:1002D800860087010108A1000A2280312000A20AB5
:1002E8006329791C9A29A6014A0826020318942929
:1002F8002608C83E86000A3087010106031991299D
:100308002608C83E86000D300106031991292608E3
:10031800C83E860001080A2280312000A60A7829F2
:100328000A300A2280310D300A2280315B302100E8
:1003380048060319E529F62918302000A100843061
:10034800A200F7218031F629D1238031F7218031AD
:10035800F6290130F906791CB9295C302000A10082
:100368008430A200F7218031F6293C302000A1001A
:100378008430A200F7218031F6290230F906F91CF1
:10038800CD2997302000A1008430A200F7218031C8
:10039800F6297A302000A1008430A200F7218031AC
:1003A800F629B2302000A1008430A200F721803164
:1003B800F629C9302000A1008430A200F72180313D
:1003C800F6294908423A0319D529073A0319AD29EC
:1003D8000D3A0319A0291A3A0319C129043A031935
:1003E800A829DD291D2920002208A4002108A3002E
:1003F800A10A0319A20A8400240885000008A500A0
:100408002508031908000A228031F7292000A000D6
:1004180021001112771C1B2A2000C90F142AC903B6
:100428003E0886003F088700200881000800200059
:100438004108BF004008BE00400886004108870008
:1004480020088100C00A0319C10A7F30F400233054
:10045800F50041087502031D332A40087402031889
:10046800392A2330C1001030C0003D084106031D61
:100478003F2A3C08400603197714F710210011168B
:1004880008002D23803175082000AD007408AC00E9
:100498000030B501A03E86005B308701CB23803158
:1004A8005230CB2380313A3081002C08A0002D082F
:1004B800A1000430A201A301A701A601A500E33011
:1004C800A400332380312308B1002208B00021089A
:1004D800AF002008AE002F08AE003008AF00A10022
:1004E8002E08A000D8228031B8238031AA23803179
:1004F8002E30CB2380313308AA238031320EAA2331
:1005080080313208AA238031563081000A30A00099
:10051800A1012D08A3002C08A2005823803121082E
:10052800AD002008AC002030AC071C30AD3D0630D3
:10053800AD36AC0C890B9C2A01302D020030031912
:100548002C02031CAA2AFF30AC00AD012C08AE0017
:10055800AF01AE35AF0DAE35AF0DAE35AF0D2F08CF
:10056800A1002E08A000D8228031B8238031AA2308
:1005780080313308AA238031320EAA238031320811
:10058800AA2380317530CB2380317330CB2380315F
:100598005D30CB2380310A30CB2380310D30CB2323
:1005A800803181012C086D2BA601A701A8012730F5
:1005B8002102103003192002031CF22A1030A00275
:1005C8002730A13B0130A807DB2AE830A00203301E
:1005D800A13B1030A70701300318A80703302102F8
:1005E800E83003192002031C012BE92A6430A00219
:1005F8000030A13BA70A0319A80A00302102643081
:1006080003192002031C142BFA2A0A30A002003016
:10061800A13B1030A60701300318A7070318A80745
:10062800003021020A30031920020318092B200880
:10063800A3002108A400A5012308A6072408A73DB4
:100648002508A83D2608A0002708A1002808A20020
:10065800080021001C08F5001B08F4000800A80188
:10066800A901AA01AB01201C412B2408A8072508D1
:10067800A93D2608AA3D2708AB3DA435A50DA60D22
:10068800A70DA336A20CA10CA00C23082204210458
:100698002004031D372B2B08A3002A08A2002908D1
:1006A800A1002808A0000800F401F501201C602B17
:1006B8002208F4072308F53DA235A30DA136A00CA6
:1006C80020082104031D5A2B7508A1007408A000F6
:1006D8000800F400D530210095007409F5002000C9
:1006E800950022008C140B118B160800842380318E
:1006F800A700D72380315D302706031D7A2B752983
:10070800F719003436088600370887000108A0006A
:10071800B60A0319B70AEF30F4002330F50037089A
:100728007502031D992B3608740203189F2B23307A
:10073800B7008030B6003B083706031DA52B3A08E2
:1007480036060319F7157711200808000F39E03E1F
:10075800840083300318013E850000088100B50A33
:100768003508A03E860008002008B2002108B30022
:100778002208B400B50A3508A03E8600203087015B
:100788008100B50A3508A03E8600330E08008100B6
:10079800B50A3508A03E86000800F1302000A10007
:1007A8008330A2000800F4004A08C83E860087018A
:1007B80074088100CA0A08003034313432343334C2
:1007C80034343534363437343834393441344234B7
:1007D800433444344534463400345B3456343A3474
:1007E80020344B3441342D343034323437344334AC
:1007F80020343134363446343134383434343734B0
:100808002034763432342E3430342E34303420349C
:1008180032343034313435343134313430343534A1
:100828005D340A340D3400345B3448343A342034AF
:1008380048342D3465346C347034203456342D34B7
:1008480065347234733469346F346E34203445340B
:100858002D34633468346F34203452342D34653485
:1008680070346F34723474345D340A340D340034A7
:100878005B3445343A3420344D346534733473343E
:1008880061346734653420346534633468346F34D4
:1008980020346434653461346334743469347634B0
:1008A80061347434653464345D340A340D3400348E
:1008B8005B3445343A3420344D34653473347334FE
:1008C80061346734653420346534633468346F3494
:1008D8002034613463347434693476346134743464
:1008E800653464345D340A340D3400345B34523476
:1008F8003A3420345234653470346F34723474347A
:1009080069346E3467342034643465346134633454
:1009180074346934763461347434653464345D34E1
:100928000A340D3400345B3452343A3420345234AF
:10093800653470346F347234743469346E346734A7
:1009480020346134633474346934763461347434F3
:10095800653464345D340A340D3400345B343F3418
:100968003A3420344E346F347434203469346D345E
:1009780070346C3465346D3465346E347434653475
:1009880064345D340A340D3400345B343F343A3413
:1009980020344E346F347434203472346534633404
:1009A8006F3467346E3469347A34653464345D3452
:1009B8000A340D34003423009D1CE92C1D121D1629
:1009C8002000C80F0800C80308001D1DF12C1908D5
:1009D8002000C70F0800C7030800771DF62CF80F82
:1009E800F62CF8031908F300012584315D307306ED
:1009F8000319C60F0800C6030800F200771D0F2D63
:100A0800F80F072DF80320003808860039088700FA
:100A180072088100080020003B08B9003A08B800B5
:100A28003A0886003B08870072088100BA0A031951
:100A3800BB0AEF30F0002330F1003B087102031DC0
:100A4800272D3A08700203182D2D2330BB00803063
:100A5800BA0037083B06031D332D36083A0603193A
:100A68007715F7110800F71C3C2D2100111208001A
:100A7800402523009A000800F71800343C08860037
:100A88003D0887000108F200BC0A0319BD0A7F303F
:100A9800F0002330F1003D087102031D552D3C087C
:100AA800700203185B2D2330BD001030BC004108D4
:100AB8003D06031D612D40083C060319F714771005
:100AC800720808006400013080010131FE02003024
:100AD800FF3B7F087E0403190034672D732D220025
:040AE8008C10080066
:020000040001F9
:04000E00E4CFFFDB61
:00000001FF
